:1000000045C0000060C000005EC000005CC0000091
:100010005AC00000D1C0000056C0000054C000000B
:1000200052C0000050C000004EC000004CC0000094
:100030004AC0000048C0000046C0000044C00000A4
:1000400042C0000040C000003EC000003CC00000B4
:100050003AC0000038C0000036C0000034C00000C4
:1000600032C0000030C000002EC000002CC00000D4
:100070002AC0000028C0000026C0000024C00000E4
:1000800022C0000020C000001EC0000011241FBEBE
:10009000CFEFD0E1DEBFCDBF11E0A0E0B1E0E0E006
:1000A000F3E000E00BBF02C007900D92A231B10750
:1000B000D9F721E0A2E1B1E001C01D92A431B2075D
:1000C000E1F7FED01BC19CCF11BA85B3867F85BBFB
:1000D00085B3826F85BB85B3846F85BB8799F5CF68
:1000E0008FEF81BB87E893E10197F1F700C0000033
:1000F0000895CF93C82FE8DFC2BB85B3867F85BB49
:1001000085B3857F85BB85B3846F85BB85B3807FD1
:1001100085BB8DEE92E00197F1F700C00000CF9112
:100120000895CF93C82FD0DF85B3816F85BB85B38A
:10013000857F85BB85B3846F85BB80E18A95F1F7A8
:1001400000C0C2BB90E19A95F1F700C085B3837FF0
:1001500085BB8DEE92E00197F1F700C00000CF91D2
:1001600008950F931F93CF93DF938C01C0E0D0E0ED
:10017000F801EC0FFD1F8081882319F02196D1DF53
:10018000F7CFDF91CF911F910F91089581E0B1CF0B
:10019000089590E001970024969587950794969589
:1001A00087950794982F802D70E061507109860F14
:1001B000971F80689ECF08951F920F920FB60F92DF
:1001C00011240BB60F922F933F934F935F936F932E
:1001D0007F938F939F93AF93BF93EF93FF931FBE34
:1001E0009091130181E0890F809313018DEC989F0A
:1001F000812D112486958695282F220F220F820F9C
:10020000981B90931201911108C0C0DF61E081E05A
:10021000C0DF8AE091E0A5DF27C0913041F4B6DF6E
:1002200061E081E0B6DF8EE091E09BDF1DC092309F
:1002300041F4ACDF61E081E0ACDF8CE091E091DF84
:1002400013C0933041F4A2DF61E081E0A2DF8FE0D0
:1002500091E087DF09C0943039F498DF61E081E0F4
:1002600098DF8BE091E07DDFE0911201F0E0EE0F8E
:10027000FF1FE050FF4F808191819BBD8ABD80911F
:100280001301803510F01092130187E893E1019774
:10029000F1F700C0000080E88FBFFF91EF91BF91A0
:1002A000AF919F918F917F916F915F914F913F910E
:1002B0002F910F900BBE0F900FBE0F901F901895AF
:1002C0008FEF84BB85BB80E287BBC0E8CFBD82E1F6
:1002D0008EBD80E29EE497BD86BD88E592E09BBD21
:1002E0008ABD12B880EF83B989BF8AEA8ABF4EDF20
:1002F0001092130110921201CFBFFFCFF894FFCFDD
:1003000058021A04DC059E0760092D3930002D348F
:020310003500B6
:00000001FF
