S00B00004C43442E7372656346
S113000045C0000058C0000056C0000054C00000A5
S113001052C00000D6C20000EFC2000008C30000B6
S113002014C3000048C0000046C0000044C00000E3
S113003042C0000040C000003EC000003CC00000C0
S11300403AC0000038C0000036C0000034C00000D0
S113005032C0000030C000002EC000002CC00000E0
S11300602AC0000028C0000026C0000024C00000F0
S113007022C0000020C000001EC000001CC0000000
S11300801AC0000018C0000016C0000011241FBED2
S1130090CFEFD0E1DEBFCDBF11E0A0E0B1E0EAE6F2
S11300A0F6E000E00BBF02C007900D92A035B10747
S11300B0D9F7B2D1D8C2A4CF11BA85B3867F85BB94
S11300C085B3826F85BB85B3846F85BB8799F5CF74
S11300D08FEF81BB2FEF89EF90E02150804090405B
S11300E0E1F700C000000895CF93C82FE5DFC2BB3D
S11300F085B3867F85BB85B3857F85BB85B3846FD8
S113010085BB85B3807F85BB8FED9EE20197F1F7B8
S113011000C00000CF9108958FEF81BB94B384BBDE
S11301208FE59AEE0197F1F700C0000080E382BBEF
S113013085B3807F85BB8FE090E40197F1F700C021
S1130140000085B3807F85BB8FE891E00197F1F7CC
S113015000C0000085B3807F85BB88E3C5DF88E0ED
S1130160C3DF81E0C1DF8FE0BFCF0895CF93C82FF5
S1130170A3DF85B3816F85BB85B3857F85BB85B3DD
S1130180846F85BB87EC90E00197F1F700C0000015
S1130190C2BB87EC90E00197F1F700C0000085B383
S11301A0837F85BB8FED9EE20197F1F700C00000CD
S11301B0CF9108950F931F93CF93DF938C01C0E0E9
S11301C0D0E0F801EC0FFD1F8081882319F02196FF
S11301D0CDDFF7CFDF91CF911F910F91089581E08B
S11301E083CF089590E0019700249695879507940E
S11301F0969587950794982F802D70E0615071092A
S1130200860F971F806870CF08950F931F93CF9325
S1130210DF93CDB7DEB7E0970FB6F894DEBF0FBE1D
S1130220CDBF88E0E4E1F1E0DE01119601900D928A
S11302308A95E1F788E0ECE1F1E0DE01199601909E
S11302400D928A95E1F788E0E4E2F1E0DE0151964F
S113025001900D928A95E1F788E0ECE2F1E0DE018D
S1130260599601900D928A95E1F788E0E4E3F1E074
S1130270DE01919601900D928A95E1F788E0ECE316
S1130280F1E0DE01999601900D928A95E1F78FE9EC
S11302909FE00197F1F700C0000080E425DF8FE9BB
S11302A09FE00197F1F700C0000000E010E010C0EB
S11302B0E1E0F0E0EC0FFD1FE00FF11F808156DF5D
S11302C08FE99FE00197F1F700C000000F5F1F4F17
S11302D0083011056CF388E407DF8FE99FE001978C
S11302E0F1F700C0000000E010E010C0E9E0F0E029
S11302F0EC0FFD1FE00FF11F808138DF8FE99FE0D5
S11303000197F1F700C000000F5F1F4F083011057F
S11303106CF380E5E9DE8FE99FE00197F1F700C017
S1130320000000E010E010C0E1E1F0E0EC0FFD1F80
S1130330E00FF11F80811ADF8FE99FE00197F1F749
S113034000C000000F5F1F4F083011056CF388E5F3
S1130350CBDE8FE99FE00197F1F700C0000000E0D9
S113036010E010C0E9E1F0E0EC0FFD1FE00FF11F19
S11303708081FCDE8FE99FE00197F1F700C0000067
S11303800F5F1F4F083011056CF380E6ADDE8FE977
S11303909FE00197F1F700C0000000E010E010C0FA
S11303A0E1E2F0E0EC0FFD1FE00FF11F8081DEDEE3
S11303B08FE99FE00197F1F700C000000F5F1F4F26
S11303C0083011056CF388E68FDE8FE99FE0019712
S11303D0F1F700C0000000E010E010C0E9E2F0E036
S11303E0EC0FFD1FE00FF11F8081C0DE8FE99FE05D
S11303F00197F1F700C000000F5F1F4F083011058F
S11304006CF3E0960FB6F894DEBF0FBECDBFDF915C
S1130410CF911F910F910895CFEFCABBC7BBC1BB4A
S113042010926100C0936200C4BBD0EFD5BB2FEF24
S113043083ED90E3215080409040E1F700C000003C
S11304401BBA18BA69DE8FE39CE90197F1F700C083
S1130450000061E081E0C6DE80E388DECBBB9FEF75
S113046023ED80E3915020408040E1F700C000007C
S113047061E081E0B7DE84E491E09CDE9FEF23ED50
S113048080E3915020408040E1F700C00000BDDED1
S11304906CE081E0A7DE80E069DE85E067DE9FEF47
S11304A023ED80E3915020408040E1F700C000003C
S11304B060E082E097DE80E359DE9FEF23ED80E386
S11304C0915020408040E1F700C000001BBA9FEF2C
S11304D023ED80E3915020408040E1F700C000000C
S11304E0D9BF8AEA8ABF80E88FBF10E3C0E0D0E0BA
S11304F00099FECF9FEF29EF80E09150204080408B
S1130500E1F700C000002196C930D10511F4C0E024
S1130510D0E0FE01E65FFE4F80818BBBFE01E05020
S1130520FF4F808188BB6C2F6F5F82E05BDE1F5FB3
S1130530812F1CDE9FEF21EE84E09150204080400B
S1130540E1F700C00000183381F45FDE6BE082E065
S113055049DE80E00BDE81E009DE82E007DE83E035
S113056005DE84E003DE8FE301DE1933A9F437DE10
S113057061E081E037DE84E491E01CDE46DE6CE07D
S113058081E030DE80E0F2DD85E0F0DD60E082E0F5
S113059029DE80E3EBDD10E39FEF23EC89E091504B
S11305A020408040E1F700C00000009BFECF9FEF99
S11305B029EF80E0915020408040E1F700C0000026
S11305C097CF1F920F920FB60F9211242F938F93F0
S11305D09F9386E388BB2FEF81EE94E02150804007
S11305E09040E1F700C000009F918F912F910F90F0
S11305F00FBE0F901F9018951F920F920FB60F9277
S113060011242F938F939F9389E088BB2FEF81EE62
S113061094E0215080409040E1F700C000009F9199
S11306208F912F910F900FBE0F901F9018951F92CE
S11306300F920FB60F9211248F938BEF88BB8F917B
S11306400F900FBE0F901F9018951F920F920FB628
S11306500F9211248F9387EF88BB8F910F900FBE59
S10D06600F901F901895F894FFCF37
S113066A3F065B4F666D7C077F4000FEFDFBF7EF9C
S113067ADFBF7FFF1D0505001F11111F01091D0999
S113068A1515151509151509000A1515091517154E
S113069A090100000E11110E000A1F00040E151F95
S11306AA1F020C1F48656C6C6F772041565200007C
S9030000FC
