:1000000045C0000061C000005FC000005DC000008E
:100010005BC0000059C0000057C0000055C0000080
:1000200053C0000051C000004FC200004DC000008E
:100030004BC0000049C0000047C0000045C00000A0
:1000400008C2000041C000003FC000003DC00000E9
:100050003BC0000039C0000037C0000035C00000C0
:1000600033C0000031C000002FC000002DC00000D0
:100070002BC0000029C0000027C0000025C00000E0
:1000800023C0000021C000001FC0000011241FBEBB
:10009000CFEFD0E1DEBFCDBF11E0A0E0B1E0E6E9F7
:1000A000F1E100E00BBF02C007900D92A83DB1073F
:1000B000D9F722E0A8EDB1E001C01D92AA30B20745
:1000C000E1F703D70C94C9089BCF17BA85B38670A4
:1000D00085BB85B3826085BB85B3846085BBB799DA
:1000E000F5CF8FEF87BB2FEF80E792E02150804064
:1000F0009040E1F700C000000895CF93C82FE5DFDE
:1001000085E38A95F1F70000C8BB85B3867085BB8F
:1001100085B3857085BB85B3846085BB85B38370EB
:1001200085BB85E08A95F1F70000CF9108952FEF08
:1001300082E597E0215080409040E1F700C0000048
:100140008FEF87BB84B38F6084BB2FEF82E597E08E
:10015000215080409040E1F700C0000080E388BB60
:1001600085B315BA8FE090E40197F1F700C0000065
:1001700085B315BA8FE891E00197F1F700C0000050
:1001800085B315BA88E3B9DF8FE19EE40197F1F7F3
:1001900000C0000088E0B1DF8FE19EE40197F1F735
:1001A00000C0000081E0A9DF8FE19EE40197F1F734
:1001B00000C0000086E0A1DF8FE19EE40197F1F727
:1001C00000C000008FE099CF0895CF93C82F7DDF46
:1001D00085E38A95F1F7000085B3816085BB85B31F
:1001E000857085BB85B3846085BB87EC90E0019703
:1001F000F1F700C00000C8BB87EC90E00197F1F771
:1002000000C0000085B3837085BBCF9108950F9324
:100210001F93CF93DF938C01C0E0D0E0F801EC0F87
:10022000FD1F8081882319F02196CFDFF7CFDF9162
:10023000CF911F910F91089581E05FCF089590E0D5
:10024000019700249695879507949695879507942E
:10025000982F802D70E061507109860F971F80687C
:100260004CCF08950F931F93CF93DF93CDB7DEB795
:1002700068970FB6F894DEBF0FBECDBF88E0E8E107
:10028000F1E0DE01119601900D928A95E1F788E088
:10029000E0E2F1E0DE01199601900D928A95E1F716
:1002A00088E0E8E2F1E0DE01519601900D928A9536
:1002B000E1F78FE99FE00197F1F700C0000080E4CB
:1002C0001CDF8FE99FE00197F1F700C0000000E01C
:1002D00010E010C0E1E0F0E0EC0FFD1FE00FF11FB7
:1002E000808173DF8FE99FE00197F1F700C0000084
:1002F0000F5F1F4F083011056CF388E4FEDE8FE9B5
:100300009FE00197F1F700C0000000E010E010C08E
:10031000E9E0F0E0EC0FFD1FE00FF11F808155DFF9
:100320008FE99FE00197F1F700C000000F5F1F4FBA
:10033000083011056CF380E5E0DE8FE99FE001975E
:10034000F1F700C0000000E010E010C0E1E1F0E0D3
:10035000EC0FFD1FE00FF11F808137DF8FE99FE079
:100360000197F1F700C000000F5F1F4F0830110523
:100370006CF388E5C2DE8FE99FE00197F1F700C0DA
:10038000000068960FB6F894DEBF0FBECDBFDF91B8
:10039000CF911F910F91089594EA909374009091DA
:1003A00074009923E4F790917100987F9830B9F721
:1003B000880F8093730084E88093740080917400A8
:1003C0008823E4F780917100887F8831B9F76093C2
:1003D000730084E880937400809174008823E4F7AC
:1003E00080917100887F8832B9F784E98093740026
:1003F000089594EA90937400909174009923E4F71F
:1004000090917100987F9830B9F790E0880F991F0C
:1004100081608093730084E88093740080917400FD
:100420008823E4F780917100887F8034B9F784E8ED
:1004300080937400809174008823E4F780917100A8
:10044000887F8835B9F78091730094E990937400A0
:1004500008951F920F920FB60F9211248F939F93BE
:1004600080E782BF81E0809306028091E501909150
:10047000E60101969093E6018093E5010A9738F032
:100480001092E6011092E50181E08093E8019F91CE
:100490008F910F900FBE0F901F9018959091E901CA
:1004A000913341F420E931E03093F5012093F401D8
:1004B00080930902089580E991E09093F50180937B
:1004C000F4011092090208951F920F920FB60F9235
:1004D00011240BB60F922F933F934F935F936F931B
:1004E0007F938F939F93AF93BF93EF93FF938091ED
:1004F000EA0184BD2091090291E08091E9018033F5
:1005000009F090E081E0211180E0892B31F0E5E6EF
:10051000F0E080818E7F808330C08091F4019091E3
:10052000F50101979093F5018093F401883C9105C2
:1005300038F0E5E6F0E0908181E0892780831DC0F6
:10054000009731F0E5E6F0E080818E7F808315C072
:10055000892B99F4215020930902211102C0ABDFAD
:100560000CC0E5E6F0E0908181E08927808380E996
:1005700091E09093F5018093F401FF91EF91BF9189
:10058000AF919F918F917F916F915F914F913F912B
:100590002F910F900BBE0F900FBE0F901F901895CC
:1005A0008FEF809361008093620090EF92B92FE00B
:1005B00023B98ABB8BBB85BB94BB18BA87BB2FEF13
:1005C00033ED90E3215030409040E1F700C000004F
:1005D0001BBA8093650080936400089512BE87E083
:1005E00083BF81E087BF089583E085BD84ED84BD2E
:1005F00087B7806487BF08950F931F9303C00000DF
:10060000C901B8018B019C0101501109210931096F
:10061000672B682B692B99F71F910F91089520E0A4
:1006200030E00DC00F92000000000000000000004C
:1006300000000000000000000F902F5F3F4F2817C0
:10064000390780F308950F931F93CF93DF938C01A5
:10065000C0E0D0E00DC08AEF90E0E1DF8AEF90E0EB
:10066000DEDF8AEF90E0DBDF8AEF90E0D8DF2196D3
:10067000C017D10780F3DF91CF911F910F9108959B
:100680000F931F93CF93DF93EC018A30910544F4CD
:10069000FC01E25FFE4F808198DD8AE090E0D3DFCD
:1006A000CE010A978A359105A8F4CE016AE070E080
:1006B00082D48C01FB01E25FFE4F808186DD8AE0FF
:1006C00090E0C1DFF801E25FFE4F80817EDD8AE0CD
:1006D00090E0B9DFC436D10554F1CE0164E670E094
:1006E0006AD49B01CE016AE070E065D48C0146EFCC
:1006F0004203C001439F900D1124EB01C80FD91F85
:10070000F901E25FFE4F808160DD8AE090E09BDFCF
:10071000C25FDE4F888159DD8AE090E094DFF80106
:10072000E25FFE4F808151DD8AE090E08CDFDF9157
:10073000CF911F910F91089581E090E0B8D490E09F
:100740009093DF018093DE0183E090E0B0D490E0ED
:100750009093E4018093E30184E090E0A8D490E0DA
:100760009093F3018093F20167DD61E081E067DD42
:1007700080E391E04CDD8091DE019091DF0180DF2C
:1007800061E082E05CDD86E391E041DD8091E301A0
:100790009091E40175DF68E082E051DD8AE391E049
:1007A00036DD8091F2019091F3016ADF80ED97E0F0
:1007B0004ADF42DD87EE8093F00108958AE080935E
:1007C00070001092710038DD61E081E038DD8EE369
:1007D00091E01DDD6AE081E032DD8EE2F6DC8AE543
:1007E00090E031DF8EE2F1DC8AE590E02CDF81E001
:1007F00000DE90E09093F9018093F8019093EF016F
:100800008093EE012FEF81EE94E0215080409040E4
:10081000E1F700C0000082E0ECDD90E0909301027F
:10082000809300029093F7018093F6018EE2CDDC75
:100830008AE590E008DF81E2C8DC8AE590E003DF2A
:1008400061E082E0FCDC8091EE019091EF0118DF25
:1008500068E082E0F4DC8091F6019091F70110DF0E
:1008600088EE93E0F0DEE8DC61E081E0E8DC88E43B
:1008700091E0CDDC6DE081E0E2DC8EE2A6DC8AE591
:1008800090E0E1DE8EE2A1DC8AE590E0DCDE81E052
:1008900090E00DD4682F70E07093DF016093DE016B
:1008A00081E07ADD6091DE017091DF0182E074DD2C
:1008B0006091F6017091F70181E06EDD6091EE01CB
:1008C0007091EF0182E068DD8EE27FDC8AE590E0E6
:1008D000BADE81E27ADC8AE590E0B5DE61E082E0B2
:1008E000AEDC85E591E093DC84EF91E0ACDE6091D5
:1008F000EE0183E090E0E3D36091F60184E090E0C4
:10090000DED383E090E0D3D390E09093EF01809327
:10091000EE0184E090E0CBD390E09093F7018093D8
:10092000F6010895CF938091E701853078F08FE04C
:1009300083B96AE070E080E090E05EDE81B18F70A4
:100940008F3009F09EC01092E7019BC08FEE83B9F3
:100950006AE070E080E090E04FDE089905C081E039
:1009600080930502C1E001C0C0E0099904C082E0A3
:1009700080930502CF5F0A9904C083E0809305024B
:10098000CF5F0B9904C084E080930502CF5F8FEDA9
:1009900083B96AE070E080E090E02EDE089904C040
:1009A00085E080930502CF5F099904C086E08093BB
:1009B0000502CF5F0A9904C087E080930502CF5FEC
:1009C0000B9904C088E080930502CF5F8FEB83B959
:1009D0006AE070E080E090E00FDE089904C089E0F2
:1009E00080930502CF5F099904C08AE080930502D5
:1009F000CF5F0A9904C08BE080930502CF5F0B990B
:100A000004C08CE080930502CF5F8FE783B96AE072
:100A100070E080E090E0F0DD089904C089E0809308
:100A20000502CF5F099904C08EE080930502CF5F75
:100A30000A9904C08FE080930502CF5F0B9904C030
:100A400080E180930502CF5F8FEF83B9C130C9F495
:100A5000809105029091F101891729F08093F101AD
:100A60001092E7010EC08091E7018F5F8093E7014C
:100A7000853038F09093F0011092F10181E080937D
:100A8000E001CF91089587EE8093F00180910602F6
:100A9000882319F047DF109206028091E801811146
:100AA0001092E8018091E001813011F41092E00190
:100AB00008950F931F93CF93DF931092DD0110924F
:100AC000DC011092DB011092DA011092D901109230
:100AD000D801B2DB84ED90E09093EB018093EA01C2
:100AE00081E0DCDC68E081E0AADB8FE591E08FDB70
:100AF00084EF91E0A8DD81E0D1DC68E081E09FDB5C
:100B000081E691E084DB84EF91E09DDD81E0C6DC4D
:100B100068E081E094DB83E691E079DB84EF91E0AB
:100B200092DD81E0BBDC68E081E089DB85E691E075
:100B30006EDB84EF91E087DD81E0B0DC68E081E08E
:100B40007EDB87E691E063DB84EF91E07CDD74DBA4
:100B500086E091E09093EB018093EA0181E09EDCD6
:100B60002FEF81EE94E0215080409040E1F700C0EB
:100B700000008AE491E09093EB018093EA0181E028
:100B80008DDCEFEFF1EE24E0E150F0402040E1F7A2
:100B900000C0000088E891E09093EB018093EA01A7
:100BA00081E07CDC8FEF91EEE4E081509040E0400A
:100BB000E1F700C000008BE092E09093EB0180939E
:100BC000EA0181E06BDCFFEF21EE84E0F150204090
:100BD0008040E1F700C0000063E081E030DB89E69F
:100BE00091E015DB8EEE92E02EDD26DB61E081E008
:100BF00026DB86E791E00BDB80E090E041DD61E001
:100C000082E01DDB8DE791E002DB80E090E038DDE3
:100C100084E893E018DD8091D8019091D901019684
:100C20009093D9018093D80167E081E008DB88EBDD
:100C300091E0EDDA67E081E002DB8091D8019091EC
:100C4000D9011EDD84E891E0E2DA8091D80190912B
:100C5000D9010B970CF097C01CD28770907899231C
:100C600024F40197886F9F6F019601969093DD01A0
:100C70008093DC01FC01EC5FFE4F80818BBBC0E008
:100C8000D0E046C080910602882319F04BDE109216
:100C900006028091E80181111092E8018091E00143
:100CA000813011F41092E0018091F00190E02091E8
:100CB000DC013091DD018217930731F58091DA0173
:100CC0009091DB010A969093DB018093DA0184ED29
:100CD00090E09093EB018093EA0182E0DFDB89E909
:100CE0008BBB6CE082E0ABDA85EB91E090DA6CE0F4
:100CF00082E0A5DA88E891E08ADA61E081E09FDAB3
:100D000080E28093620008C088E090E09CDC21963D
:100D1000C436D1050CF4B6CF8091F00190E020915B
:100D2000DC013091DD0182179307B9F081E190E099
:100D30009093EB018093EA0182E0B0DB6CE082E00B
:100D40007EDA85EB91E063DA6CE082E078DA8EE8B7
:100D500091E05DDA84E08093620081E88BBB87EEEE
:100D60008093F00167E082E06ADA88EB91E04FDA85
:100D700067E082E064DA8091DA019091DB0180DC47
:100D800084EF91E060DC8091D8019091D9010B97BC
:100D90000CF441CF51DA65E081E051DA84E991E069
:100DA00036DA00E010E011C0FE01EC5FFE4F8081FA
:100DB0008BBB84E690E047DC219602C0C1E0D0E026
:100DC000C930D1058CF30F5F1F4F02301105B4F30A
:100DD0008FEF8BBB80936200C1E0D0E018C063E06E
:100DE00082E02DDA8EEA91E012DA84EF91E02BDCDA
:100DF00064E082E024DA82EA91E009DA8091DA01A3
:100E00009091DB013DDC84EF91E01DDC2196C63042
:100E1000D1052CF381E090E04AD190E09093DF017E
:100E20008093DE0162E081E00ADA8DE991E0EFD99A
:100E30008091DE019091DF0123DC80ED97E003DCFF
:100E40008091DA019091DB012091DE013091DF0188
:100E500028173907ACF59093DF018093DE01C1E0DC
:100E6000D0E023C061E081E0EAD98BEA91E0CFD9FC
:100E70008FEF8BBB02E610E084E0F801808384EF03
:100E800091E0E1DB61E081E0DAD98DE991E0BFD961
:100E90008091DE019091DF01F3DB1BBA80E2F80163
:100EA000808380E991E0CFDB2196C630D105D4F272
:100EB0006091DE0181E090E002D184EC99E0C3DB37
:100EC000DF91CF911F910F910895CF93DF9380E130
:100ED0008EBF8FEF8DBF82E090E0E9D090E09093DD
:100EE000040280930302019781F060E081E090E0CA
:100EF000E6D061E082E090E0E2D060E083E090E064
:100F0000DED060E084E090E0DAD04ADB67DB6CDBC7
:100F100084E690E098DB84ED90E09093EB01809381
:100F2000EA01789481E38093E90183E0B7DA1092D3
:100F30000202FDD897D9C0E0D0E011C0F8D861E036
:100F400081E07DD980E041D981E03FD982E03DD97F
:100F50008CEB91E05CD988E592E075DB21961C165C
:100F60001D0664F769D961E081E069D982EC91E0FE
:100F70004ED969E081E063D989EC91E048D961E01C
:100F800082E05DD981ED91E042D982E390E05BDBC4
:100F90007ADD8091F001813011F48BDD07C0823061
:100FA00011F4CADB03C0833099F708DC80E090E0DD
:100FB000DF91CF91089597FB072E16F4009406D089
:100FC00077FD08D00BD007FC05D03EF490958195B5
:100FD0009F4F0895709561957F4F0895AA1BBB1B85
:100FE00051E107C0AA1FBB1FA617B70710F0A61B29
:100FF000B70B881F991F5A95A9F780959095BC014A
:10100000CD0108958F929F92AF92BF92CF92DF92BF
:10101000EF92FF92CF93DF93EC01688179818A810F
:101020009B81611571058105910521F464E279EDDB
:101030008BE597E02DE133EF41E050E04DD04901E1
:101040005A019B01AC01A7EAB1E462D06B017C01BB
:10105000ACEEB4EFA501940167D0DC01CB018C0D9F
:101060009D1DAE1DBF1DB7FF03C00197A109B0486C
:1010700088839983AA83BB839F77DF91CF91FF9069
:10108000EF90DF90CF90BF90AF909F908F9008959A
:10109000B9CF80E091E0B6CFA0E0B0E0809300014E
:1010A00090930101A0930201B09303010895E19987
:1010B000FECF9FBB8EBBE09A99278DB30895262F54
:1010C000E199FECF9FBB8EBB2DBB0FB6F894E29A81
:1010D000E19A0FBE01960895052E97FB16F4009431
:1010E0000FD057FD05D024D007FC02D046F408C02D
:1010F00050954095309521953F4F4F4F5F4F089544
:1011000090958095709561957F4F8F4F9F4F089573
:1011100031D0A59F900DB49F900DA49F800D911D7F
:1011200011240895B7FFF4CFF3DF821B930B0895CA
:10113000A1E21A2EAA1BBB1BFD010DC0AA1FBB1FDB
:10114000EE1FFF1FA217B307E407F50720F0A21B4D
:10115000B30BE40BF50B661F771F881F991F1A94BA
:1011600069F760957095809590959B01AC01BD01E4
:10117000CF010895A29FB001B39FC001A39F700D3E
:10118000811D1124911DB29F700D811D1124911D8F
:061190000895F894FFCF62
:1011960001000000000102040810204080FF3031E9
:1011A60032333435363738390E080E001F04040042
:1011B600011D1117111D0100001D09151501010062
:1011C600484947483A0073313A0073323A0072652B
:1011D60063656976696E67007472616E736D6974B2
:1011E60074696E6700636F6D706C65746521003598
:1011F60000340033003200310067616D652073747E
:10120600617274212100436F756E743A0053636FE7
:1012160072653A002F3130004E69636521004D69D1
:101226007373210047414D454F5645520048494783
:10123600482053434F5245203A20002020202020AA
:101246002020202020202020202020002047616D03
:101256006500312E506C617900322E53636F7265D2
:0812660000332E54574900002B
:00000001FF
