S00D000074657374312E7372656326
S1130000C6C00000E2C00000E0C00000DEC0000086
S1130010DCC0000084C10000D8C00000D6C00000CD
S1130020D4C00000D2C00000D0C00000CEC0000088
S1130030CCC00000CAC00000C8C00000C6C0000098
S1130040C4C00000C2C00000C0C00000BEC00000A8
S1130050BCC00000C1C10000B8C00000B6C00000B0
S1130060B4C00000B2C00000B0C00000AEC00000C8
S1130070ACC00000AAC00000A8C00000A6C00000D8
S1130080A4C00000A2C00000A0C000006E616E0009
S1130090696E660000407A10F35A00A0724E180987
S11300A00010A5D4E80000E87648170000E40B54DB
S11300B0020000CA9A3B000000E1F50500008096AA
S11300C09800000040420F000000A08601000000DC
S11300D0102700000000E803000000006400000096
S11300E000000A00000000000100000000002C765F
S11300F0D888DC674F0823DFC1DFAE59E1B1B7967A
S1130100E5E3E453C63AE651997696E8E6C28426D6
S1130110EB898C9B62ED407C6FFCEFBC9C9F40F2B2
S1130120BAA56FA5F490055A2AF75C936B6CF9672E
S11301306DC11BFCE0E40D47FEF520E6B500D0EDF3
S1130140902E0300943577050080841E080000205B
S11301504E0A000000C80C333333330F986E1283F9
S11301601141EF8D2114893BE65516CFFEE6DB18CD
S1130170D1844B381BF77C1D901DA4BBE424203292
S113018084725E228100C9F124ECA1E53D2711248B
S11301901FBECFEFD0E1DEBFCDBF11E0A0E0B1E0E4
S11301A0EEE1F4E100E00BBF02C007900D92AE3324
S11301B0B107D9F721E0AEE3B1E001C01D92A1344B
S11301C0B207E1F7A0D10C940D0A1ACF11BA85B386
S11301D0867F85BB85B3826F85BB85B3846F85BB02
S11301E08799F5CF8FEF81BB2FEF89EF90E02150F6
S11301F080409040E1F700C000000895CF93C82FDD
S1130200E5DFC2BB85B3867F85BB85B3857F85BBB0
S113021085B3846F85BB85B3807F85BB8FED9EE2FC
S11302200197F1F700C00000CF9108958FEF81BBD3
S113023094B384BB8FE59AEE0197F1F700C00000F8
S113024080E382BB85B3807F85BB8FE090E4019718
S1130250F1F700C0000085B3807F85BB8FE891E093
S11302600197F1F700C0000085B3807F85BB88E368
S1130270C5DF88E0C3DF81E0C1DF8FE0BFCF089531
S1130280CF93C82FA3DF85B3816F85BB85B3857FEB
S113029085BB85B3846F85BB87EC90E00197F1F74C
S11302A000C00000C2BB87EC90E00197F1F700C0EA
S11302B0000085B3837F85BB8FED9EE20197F1F744
S11302C000C00000CF9108950F931F93CF93DF9345
S11302D08C01C0E0D0E0F801EC0FFD1F8081882381
S11302E019F02196CDDFF7CFDF91CF911F910F91B8
S11302F0089581E083CF089590E0019700249695B6
S113030087950794969587950794982F802D70E08C
S113031061507109860F971F806870CF08951F92EE
S11303200F920FB60F9211240BB60F922F933F9397
S11303304F935F936F937F938F939F93AF93BF93E9
S1130340EF93FF9380913F01909140018BBBD1DFEC
S113035061E081E0D1DF80E191E0B6DF6CE081E033
S1130360CBDF80913F01909140018038910539F4B1
S113037081E090E09093400180933F010AC0809116
S11303803F0190914001880F991F90934001809301
S11303903F0186B1886086B982E487B986B18064FA
S11303A086B98FE39FE10197F1F700C0000080E177
S11303B088BFFF91EF91BF91AF919F918F917F91F2
S11303C06F915F914F913F912F910F900BBE0F90C2
S11303D00FBE0F901F9018951F920F920FB60F9299
S11303E011240BB60F92AF92BF92CF92DF92EF928D
S11303F0FF920F931F932F933F934F935F936F93AA
S11304007F938F939F93AF93BF93EF93FF93CF9378
S1130410DF93CDB7DEB72A97DEBFCDBF96B188E0B4
S1130420892786B984B105B110E0102F0027080F81
S1130430111DB801012E000C880B990B8DD120E001
S113044030E040EA50E414D220E030EC4FE754E4CA
S113045019D1D62EC72EB82EA92E6DE081E04CDF1F
S11304608BE191E031DF6DE081E046DF4AE0CE01CF
S113047001967C01BC01C801D5D6C70125DFAF9226
S1130480BF92CF92DF9281E291E09F938F93FF928C
S1130490EF9227D76CE082E02FDFC70115DF86E2F9
S11304A091E012DF9FEF21EE84E0915020408040E4
S11304B0E1F700C000000FB6F894DEBF0FBECDBF59
S11304C02A960FB6F894DEBF0FBECDBFDF91CF9151
S11304D0FF91EF91BF91AF919F918F917F916F9118
S11304E05F914F913F912F911F910F91FF90EF904A
S11304F0DF90CF90BF90AF900F900BBE0F900FBEC8
S11305000F901F901895CF93DF93CDB7DEB72A973E
S11305100FB6F894DEBF0FBECDBF1FEF1ABB17BBDB
S113052011BB1092610081E08093620014BB00EF64
S113053005BB2FEF83ED90E3215080409040E1F71D
S113054000C000001BBA18BA80E380933E016EDE3F
S113055061E081E0D1DE88E291E0B6DE61E082E034
S1130560CBDE80E091E0B0DE1BBB2FEF81EE94E0A8
S1130570215080409040E1F700C0000081E090E00D
S11305809093400180933F0112B803B909BF8AEAEE
S11305908ABF81E487B987E886B980E88FBF86B1CE
S11305A0877F86B981E487B986B1806186B900996D
S11305B0FECF2FEF89EF90E0215080409040E1F78B
S11305C000C0000096DE61E081E096DE83E391E006
S11305D07BDE86B1806486B9349BFECF84B105B1DD
S11305E010E0102F0027080F111DB801012E000C78
S11305F0880B990BB1D020E030E040EA50E438D1C8
S113060020E030EC4FE754E43DD0D62EC72EB82E70
S1130610A92E6DE081E070DE4AE0CE0101967C01F6
S1130620BC01C801FFD5C7014FDEAF92BF92CF9284
S1130630DF9281E291E09F938F93FF92EF9251D6E4
S11306406CE082E059DEC7013FDE86E291E03CDEE9
S11306509FEF21EE84E0915020408040E1F700C0FC
S113066000000FB6F894DEBF0FBECDBF009BFECFD7
S11306709FEF29EF80E0915020408040E1F700C0D7
S1130680000090CF0CD0BAC0B2D040F0A9D030F066
S113069021F45F3F19F09BC05111E4C09EC0BFD04C
S11306A098F39923C9F35523B1F3951B550BBB2735
S11306B0AA2762177307840738F09F5F5F4F220FE2
S11306C0331F441FAA1FA9F333D00E2E3AF0E0E8DB
S11306D030D091505040E695001CCAF729D0FE2F27
S11306E027D0660F771F881FBB1F261737074807B9
S11306F0AB07B0E809F0BB0B802DBF01FF2793586F
S11307005F4F2AF09E3F510568F061C0ABC05F3F68
S1130710ECF3983EDCF3869577956795B795F79556
S11307209F5FC9F7880F911D9695879597F908954E
S1130730E1E0660F771F881FBB1F621773078407EA
S1130740BA0720F0621B730B840BBA0BEE1F88F7F9
S1130750E0950895E89409C097FB3EF49095809540
S1130760709561957F4F8F4F9F4F9923A9F0F92F73
S113077096E9BB279395F695879577956795B795F1
S1130780F111F8CFFAF4BB0F11F460FF1BC06F5FD7
S11307907F4F8F4F9F4F16C0882311F096E911C0E9
S11307A0772321F09EE8872F762F05C0662371F00A
S11307B096E8862F70E060E02AF09A95660F771F1E
S11307C0881FDAF7880F9695879597F9089597F912
S11307D09F6780E870E060E008959FEF80EC0895E3
S11307E000240A941616170618060906089500240C
S11307F00A9412161306140605060895092E039486
S1130800000C11F4882352F0BB0F40F4BF2B11F4F9
S113081060FF04C06F5F7F4F8F4F9F4F089557FD58
S11308209058440F551F59F05F3F71F04795880F5A
S113083097FB991F61F09F3F79F0879508951216F1
S113084013061406551FF2CF4695F1DF08C016169D
S113085017061806991FF1CF86957105610508944E
S11308600895E894BB2766277727CB0197F9089565
S11308700BD0C4CFB5DF28F0BADF18F0952309F008
S1130880A6CFABCF1124EECFCADFA0F3959FD1F34F
S1130890950F50E0551F629FF001729FBB27F00D2A
S11308A0B11D639FAA27F00DB11DAA1F649F66277F
S11308B0B00DA11D661F829F2227B00DA11D621FCE
S11308C0739FB00DA11D621F839FA00D611D221F88
S11308D0749F3327A00D611D231F849F600D211D6C
S11308E0822F762F6A2F11249F5750408AF0E1F00F
S11308F088234AF0EE0FFF1FBB1F661F771F881F58
S113090091505040A9F79E3F510570F060CFAACF97
S11309105F3FECF3983EDCF3869577956795B79542
S1130920F795E7959F5FC1F7FE2B880F911D96956C
S1130930879597F908952F923F924F925F926F9205
S11309407F928F929F92AF92BF92CF92DF92EF925B
S1130950FF920F931F93CF93DF93CDB7DEB76097CA
S11309600FB6F894DEBF0FBECDBF7C011B016A0138
S1130970FC0117821682838181FF2AC39E012F5FA7
S11309803F4F3901F7019381F10193FD859193FF65
S113099081911F01882309F417C3853239F493FD2B
S11309A0859193FF81911F01853231F4B70190E065
S11309B05CD456016501E6CF10E0512C912CFFE187
S11309C0F915D8F08B3279F038F4803279F083322B
S11309D0A1F4F92DF0612EC08D3261F0803369F4F9
S11309E0292D21602DC0392D3260932E892D8460EC
S11309F0982E2AC0E92DE86015C097FC2DC020ED83
S1130A00280F2A3088F496FE06C03AE0139F200D82
S1130A101124122F19C08AE0589E200D1124522E41
S1130A20E92DE0629E2E10C08E3231F496FCCCC2C9
S1130A30F92DF0649F2E08C08C3621F4292D2068EE
S1130A40922E02C0883641F4F10193FD859193FF03
S1130A5081911F018111B3CF9BEB980F933020F448
S1130A60992D9061805E07C09BE9980F933008F040
S1130A7059C1992D9F7E96FF16E09F73992E853656
S1130A8019F49064992E08C0863621F4392F306801
S1130A90932E02C01111115097FE07C01C3350F45D
S1130AA044244394410E27E00BC0183038F027E06B
S1130AB017E005C027E09CE3492E02C0212F412CFA
S1130AC0560184E0A80EB11CF60160817181828117
S1130AD09381042DA301B8D26C01F981FC87F0FF46
S1130AE002C0F3FF06C091FC06C092FE06C000E2FD
S1130AF005C00DE203C00BE201C000E08C858C70E0
S1130B0019F0011143C280C297FE10C04C0CFC8541
S1130B10F4FF04C08A81813309F44A94141474F5EF
S1130B2028E0241578F588E0482E2CC096FC2AC0CD
S1130B30812F90E08C159D059CF03CEFC3163FEF90
S1130B40D30674F0892D8068982E0AC0E2E0F0E0A4
S1130B50EC0FFD1FE10FF11D8081803319F411505A
S1130B601111F4CF97FE0EC044244394410E812FFB
S1130B7090E0C816D9062CF41C1904C044244394EC
S1130B8001C010E097FE06C01C141D0434F4C60115
S1130B90019605C085E090E002C081E090E001117B
S1130BA00196112331F0212F30E02F5F3F4F820F48
S1130BB0931F252D30E08217930714F4581A01C0AF
S1130BC0512C892D897041F4552031F0B70180E210
S1130BD090E04BD35A94F8CF002321F0B701802F33
S1130BE090E043D393FC08C0552031F0B70180E373
S1130BF090E03BD35A94F8CF97FE4AC04601D7FE03
S1130C0002C0812C912CC60188199909F301E80FBF
S1130C10F91FFE87ED87960124193109388B2F8738
S1130C20012F10E01195019511093FEF83169306EA
S1130C3021F4B7018EE290E018D3C814D9044CF023
S1130C408F8598898815990524F4ED85FE85818121
S1130C5001C080E3F1E08F1A91082D853E852F5F56
S1130C603F4F3E872D878016910624F0B70190E010
S1130C70FCD2DBCFC814D90441F49A81963320F412
S1130C80953319F43C8534FF81E3B70190E048C003
S1130C908A81813319F09C859F7E9C87B70190E0FF
S1130CA0E4D2111105C094FC16C085E690E015C08D
S1130CB0B7018EE290E0D9D21E5F82E001E0080F16
S1130CC0F301E80FF11D8081B70190E0CED2802FAF
S1130CD00113F4CFE8CF85E490E0B701C6D2D7FC86
S1130CE006C0C114D10441F4EC85E4FF05C0D194DD
S1130CF0C194D1088DE201C08BE2B70190E0B5D276
S1130D0080E32AE0C216D1042CF08F5FFAE0CF1AF8
S1130D10D108F7CFB70190E0A8D2B701C601C096B9
S1130D20A4D249C1833631F0833779F0833509F091
S1130D3052C01FC0560132E0A30EB11CF6018081DF
S1130D40898301E010E0630111C05601F2E0AF0EA7
S1130D50B11CF601C080D18096FE03C0612F70E003
S1130D6002C06FEF7FEFC60152D28C01F92DFF77DD
S1130D7013C0560122E0A20EB11CF601C080D1803E
S1130D8096FE03C0612F70E002C06FEF7FEFC601D3
S1130D9033D28C01F92DF0689F2EF3FD18C0852DF8
S1130DA090E00817190798F4B70180E290E05DD24B
S1130DB05A94F5CFF60197FC859197FE81916F01C6
S1130DC0B70190E052D251105A9401501109011503
S1130DD0110581F7F0C0843611F0893659F55601B2
S1130DE097FE09C024E0A20EB11CF6016081718156
S1130DF0828193810AC0F2E0AF0EB11CF6016081DA
S1130E007181072E000C880B990BF92DFF769F2E0C
S1130E1097FF09C090958095709561957F4F8F4F8E
S1130E209F4FF0689F2E2AE030E0A30188D2C82E9D
S1130E30C6183EC0092D853721F40F7E2AE030E024
S1130E401DC0097F8F3691F018F4883559F0BCC065
S1130E50803719F0883711F0B7C0006104FF09C06A
S1130E60046007C094FE08C0066006C028E030E0B5
S1130E7005C020E130E002C020E132E0560107FF66
S1130E8009C084E0A80EB11CF601608171818281E1
S1130E90938108C0F2E0AF0EB11CF601608171814C
S1130EA080E090E0A3014BD2C82EC6180F77902E95
S1130EB096FE0BC0092D0E7FC11650F494FE0AC095
S1130EC092FC08C0092D0E7E05C0DC2C092D03C040
S1130ED0DC2C01C0D12E04FF0DC0FE01EC0DF11D70
S1130EE08081803311F4097E09C002FF06C0D394C7
S1130EF0D39404C0802F867809F0D39403FD10C0E6
S1130F0000FF06C01C2DD51478F4150D1D190CC056
S1130F10D51450F4B70180E290E0A7D1D394F8CF70
S1130F20D51410F45D1801C0512C04FF0FC0B70193
S1130F3080E390E09AD102FF16C001FD03C088E768
S1130F4090E002C088E590E0B7010CC0802F86785D
S1130F5051F001FF02C08BE201C080E207FD8DE287
S1130F60B70190E082D1C11630F4B70180E390E07C
S1130F707CD11150F8CFCA94F301EC0DF11D80819E
S1130F80B70190E072D1C110F6CF15C0F4E0F515A9
S1130F9050F584E0581A93FE1EC0011125C02C851B
S1130FA023FF27C00CE810E0392D3071932EF8018F
S1130FB08491811121C0552009F4FCCCB70180E251
S1130FC090E053D15A94F7CFF7018681978123C0DB
S1130FD08FEF9FEF20C0B70180E290E046D15A9492
S1130FE05110F9CFDACF512CB701802F90E03DD1C9
S1130FF0D6CF00E910E0D8CF91108052B70190E02D
S113100034D10F5F1F4FD3CF23E0251510F483E0B5
S1131010C1CF512CC4CF60960FB6F894DEBF0FBE7B
S1131020CDBFDF91CF911F910F91FF90EF90DF9093
S1131030CF90BF90AF909F908F907F906F905F9074
S11310404F903F902F900895283008F027E03327E1
S1131050DA01990F311D87FD9160009661057105D4
S113106039F432602E5F3D9330E32A95E1F7089519
S11310709F3F30F080387105610509F03C5F3C5FAB
S11310803D93913008F08068911DDF93CF931F93B7
S11310900F93FF92EF92192F987F9695E92F9695CB
S11310A09695E90FFF27E251FF4F99273327EE2446
S11310B0FF24A701E70105900894079428F4360F4C
S11310C0E71EF81E491F511D660F771F881F991FC1
S11310D00694A1F70590079428F4E70EF81E491F1B
S11310E0561FC11D770F881F991F661F0694A1F70D
S11310F00590079428F4F80E491F561FC71FD11DE9
S1131100880F991F661F771F0694A1F7059007940F
S113111020F4490F561FC71FD81F990F661F771F4A
S1131120881F0694A9F784911095177041F0D695FD
S1131130C79557954795F794E7941A95C1F7E4E94D
S1131140F0E068941590159135916591959105900D
S11311507FE27395E118F10A430B560BC90BD009D2
S1131160C0F7E10CF11E431F561FC91FD01D7EF4AA
S1131170703311F48A95E6CFE894015030F0080FEB
S11311800AF40027021708F4202F2395022F7A333C
S113119028F079E37D932A95E9F710C07D932A9589
S11311A089F6069497956795379517951794E118DE
S11311B0F10A430B560BC90BD00998F023957E9185
S11311C073957A3308F070E37C932013B8F77E911B
S11311D070617D9330F0839571E37D9370E32A957C
S11311E0E1F71124EF90FF900F911F91CF91DF91C0
S11311F0992787FD90950895FC01059061507040F2
S11312000110D8F7809590958E0F9F1F0895FC01CB
S11312106150704001900110D8F7809590958E0F21
S11312209F1F0895BB274A3031F4992322F4BDE26D
S1131230909581959F4F01C0BB27FB015527AA2795
S1131240880F991FAA1FA41710F0A41B839550514F
S1131250B9F7A05DAA3308F0A95DA193009779F7C7
S1131260B111B1931192CB01C8C00F931F93CF93C7
S1131270DF93FB01238121FD03C08FEF9FEF2CC07F
S113128022FF16C0468157812481358142175307B6
S113129044F4A081B1819D012F5F3F4F31832083AE
S11312A08C93268137812F5F3F4F3783268314C069
S11312B08B01EC01FB010084F185E02D0995892B5C
S11312C0E1F6D80116968D919C9117970196179681
S11312D09C938E931697CE01DF91CF911F910F911E
S11312E008950F931F93CF93DF93CDB7DEB72E9757
S11312F00FB6F894DEBF0FBECDBF0D891E8986E000
S11313008C831A8309838FEF9FE79E838D83AE01BD
S1131310475E5F4F6F89788DCE0101960CDBEF81BC
S1131320F885E00FF11F10822E960FB6F894DEBFF9
S11313300FBECDBFDF91CF911F910F910895FA0198
S1131340AA27283051F1203181F1E8946F936E7F00
S11313506E5F7F4F8F4F9F4FAF4FB1E03ED0B4E0F1
S11313603CD0670F781F891F9A1FA11D680F791F32
S11313708A1F911DA11D6A0F711D811D911DA11D43
S113138020D009F468943F912AE0269F1124301953
S1131390305D3193DEF6CF010895462F4770405DEE
S11313A04193B3E00FD0C9F7F6CF462F4F70405D9D
S11313B04A3318F0495D31FD4052419302D0A9F7F8
S11313C0EACFB4E0A6959795879577956795BA95F2
S11313D0C9F700976105710508959B01AC010A2EB8
S11313E006945795479537952795BA95C9F7620F8F
S11313F0731F841F951FA01D0895DC01FC01672F36
S113140071917723E1F7329704C07C916D937083D7
S11114106291AE17BF07C8F30895F894FFCF9A
S113141E31323334353637383930000000000000AD
S113142E4344532053656E736F7200202020202096
S113143E00252E326600560048656C6C6F7720418D
S111144E565200566F6C756D65204144430084
S9030000FC
