:1000000045C0000061C000005FC000005DC000008E
:100010005BC0000059C0000057C0000055C0000080
:1000200053C0000051C0000040C200004DC000009D
:100030004BC0000049C0000047C0000045C00000A0
:10004000F9C1000041C000003FC000003DC00000F9
:100050003BC0000039C0000037C0000035C00000C0
:1000600033C0000031C000002FC000002DC00000D0
:100070002BC0000029C0000027C0000025C00000E0
:1000800023C0000021C000001FC0000011241FBEBB
:10009000CFEFD0E1DEBFCDBF11E0A0E0B1E0EEE4F4
:1000A000F1E100E00BBF02C007900D92A63DB10741
:1000B000D9F722E0A6EDB1E001C01D92A830B20749
:1000C000E1F7DFD60C94A5089BCF17BA85B38670ED
:1000D00085BB85B3826085BB85B3846085BBB799DA
:1000E000F5CF8FEF87BB2FEF80E792E02150804064
:1000F0009040E1F700C000000895CF93C82FE5DFDE
:1001000085E38A95F1F70000C8BB85B3867085BB8F
:1001100085B3857085BB85B3846085BB85B38370EB
:1001200085BB85E08A95F1F70000CF9108952FEF08
:1001300082E597E0215080409040E1F700C0000048
:100140008FEF87BB84B38F6084BB2FEF82E597E08E
:10015000215080409040E1F700C0000080E388BB60
:1001600085B315BA8FE090E40197F1F700C0000065
:1001700085B315BA8FE891E00197F1F700C0000050
:1001800085B315BA88E3B9DF8FE19EE40197F1F7F3
:1001900000C0000088E0B1DF8FE19EE40197F1F735
:1001A00000C0000081E0A9DF8FE19EE40197F1F734
:1001B00000C0000086E0A1DF8FE19EE40197F1F727
:1001C00000C000008FE099CF0895CF93C82F7DDF46
:1001D00085E38A95F1F7000085B3816085BB85B31F
:1001E000857085BB85B3846085BB87EC90E0019703
:1001F000F1F700C00000C8BB87EC90E00197F1F771
:1002000000C0000085B3837085BBCF9108950F9324
:100210001F93CF93DF938C01C0E0D0E0F801EC0F87
:10022000FD1F8081882319F02196CFDFF7CFDF9162
:10023000CF911F910F91089581E05FCF089590E0D5
:10024000019700249695879507949695879507942E
:10025000982F802D70E061507109860F971F80687C
:100260004CCF08950F931F93CF93DF93CDB7DEB795
:1002700068970FB6F894DEBF0FBECDBF88E0E8E107
:10028000F1E0DE01119601900D928A95E1F788E088
:10029000E0E2F1E0DE01199601900D928A95E1F716
:1002A00088E0E8E2F1E0DE01519601900D928A9536
:1002B000E1F78FE99FE00197F1F700C0000080E4CB
:1002C0001CDF8FE99FE00197F1F700C0000000E01C
:1002D00010E010C0E1E0F0E0EC0FFD1FE00FF11FB7
:1002E000808173DF8FE99FE00197F1F700C0000084
:1002F0000F5F1F4F083011056CF388E4FEDE8FE9B5
:100300009FE00197F1F700C0000000E010E010C08E
:10031000E9E0F0E0EC0FFD1FE00FF11F808155DFF9
:100320008FE99FE00197F1F700C000000F5F1F4FBA
:10033000083011056CF380E5E0DE8FE99FE001975E
:10034000F1F700C0000000E010E010C0E1E1F0E0D3
:10035000EC0FFD1FE00FF11F808137DF8FE99FE079
:100360000197F1F700C000000F5F1F4F0830110523
:100370006CF388E5C2DE8FE99FE00197F1F700C0DA
:10038000000068960FB6F894DEBF0FBECDBFDF91B8
:10039000CF911F910F910895880F8093720084E48C
:1003A00080937400809174008823E4F78091710039
:1003B000887F883AB9F76093730084EC8093740067
:1003C000809174008823E4F780917100887F803CDD
:1003D000B9F784EC809374000895880F80937200BD
:1003E00084E480937400809174008823E4F7809102
:1003F0007100887F8036B9F784EC80937400809117
:1004000074008823E4F780917100887F8038B9F701
:100410008091730094EC90937400909174009923F0
:10042000E4F790917100987F903AB9F794EC90932B
:10043000740008951F920F920FB60F9211248F939C
:100440009F9380E782BF81E0809304028091E50161
:100450009091E60101969093E6018093E5010A9759
:1004600038F01092E6011092E50181E08093E801F6
:100470009F918F910F900FBE0F901F9018959091A4
:10048000EB01913341F420E931E03093F7012093FF
:10049000F60180930702089580E991E09093F701B7
:1004A0008093F6011092070208951F920F920FB6E3
:1004B0000F9211240BB60F922F933F934F935F939C
:1004C0006F937F938F939F93AF93BF93EF93FF931C
:1004D0008091EC0184BD2091070291E08091EB01B5
:1004E000803309F090E081E0211180E0892B31F028
:1004F000E5E6F0E080818E7F808330C08091F60158
:100500009091F70101979093F7018093F601883C51
:10051000910538F0E5E6F0E0908181E0892780835D
:100520001DC0009731F0E5E6F0E080818E7F80838A
:1005300015C0892B99F4215020930702211102C084
:10054000ABDF0CC0E5E6F0E0908181E08927808395
:1005500080E991E09093F7018093F601FF91EF918C
:10056000BF91AF919F918F917F916F915F914F91CB
:100570003F912F910F900BBE0F900FBE0F901F90C9
:1005800018958FEF809361008093620090EF92B98D
:100590002FE023B98ABB8BBB85BB94BB18BA87BB42
:1005A0002FEF33ED90E3215030409040E1F700C051
:1005B00000001BBA8093650080936400089512BE0A
:1005C00087E083BF81E087BF089583E085BD84ED28
:1005D00084BD87B7806487BF08950F931F9303C0BE
:1005E0000000C901B8018B019C01015011092109CA
:1005F0003109672B682B692B99F71F910F9108958B
:1006000020E030E00DC00F9200000000000000006C
:10061000000000000000000000000F902F5F3F4F1F
:100620002817390780F308950F931F93CF93DF9313
:100630008C01C0E0D0E00DC08AEF90E0E1DF8AEFEE
:1006400090E0DEDF8AEF90E0DBDF8AEF90E0D8DF3A
:100650002196C017D10780F3DF91CF911F910F91A1
:1006600008950F931F93CF93DF93EC018A30910588
:1006700044F4FC01E25FFE4F8081A7DD8AE090E058
:10068000D3DFCE010A978A359105A8F4CE016AE03E
:1006900070E06DD48C01FB01E25FFE4F808195DD3F
:1006A0008AE090E0C1DFF801E25FFE4F80818DDDDE
:1006B0008AE090E0B9DFC436D10554F1CE0164E69A
:1006C00070E055D49B01CE016AE070E050D48C01FB
:1006D00046EF4203C001439F900D1124EB01C80F68
:1006E000D91FF901E25FFE4F80816FDD8AE090E063
:1006F0009BDFC25FDE4F888168DD8AE090E094DF97
:10070000F801E25FFE4F808160DD8AE090E08CDFDF
:10071000DF91CF911F910F91089581E090E0A3D4D4
:1007200090E09093DD018093DC0183E090E09BD426
:1007300090E09093EA018093E90184E090E093D403
:1007400090E09093E4018093E30176DD61E081E045
:1007500076DD80E391E05BDD8091DC019091DD014D
:1007600080DF61E082E06BDD86E391E050DD809127
:10077000E9019091EA0175DF68E082E060DD89E3DC
:1007800091E045DD8091E3019091E4016ADF80ED25
:1007900097E04ADF51DD87EE8093F20108951092D1
:1007A00071004ADD61E081E04ADD8DE391E02FDDFB
:1007B0006DE081E044DD8EE208DD8AE590E034DF23
:1007C0008EE203DD8AE590E02FDF81E090E04BD4FC
:1007D000682F70E07093DD016093DC0182E0DCDD66
:1007E0002BDD61E081E02BDD8AE491E010DD6AE041
:1007F00081E025DD8EE2E9DC8AE590E015DF8EE21E
:10080000E4DC8AE590E010DF82E0E7DD90E09093A1
:10081000E2018093E1019093F5018093F4012FEFC1
:1008200081EE94E0215080409040E1F700C000004C
:1008300082E0D3DD90E09093F9018093F8019093EA
:10084000F1018093F0018EE2C0DC8AE590E0ECDEFD
:1008500081E2BBDC8AE590E0E7DE61E082E0EFDC8C
:100860008091F4019091F501FCDE68E082E0E7DC24
:100870008091F0019091F101F4DE88EE93E0D4DEF6
:100880008EE2A3DC8AE590E0CFDE81E29EDC8AE5A1
:1008900090E0CADE61E082E0D2DC84E591E0B7DC82
:1008A00084EF91E0C1DE6091F40183E090E0E3D356
:1008B0006091F00184E090E0DED383E090E0D3D358
:1008C00090E09093F5018093F40184E090E0CBD325
:1008D00090E09093F1018093F0010895CF9380917F
:1008E000E701853078F08FE083B96AE070E080E05E
:1008F00090E073DE81B18F708F3009F09EC010924E
:10090000E7019BC08FEE83B96AE070E080E090E081
:1009100064DE089905C081E080930302C1E001C054
:10092000C0E0099904C082E080930302CF5F0A9976
:1009300004C083E080930302CF5F0B9904C084E07E
:1009400080930302CF5F8FED83B96AE070E080E0AF
:1009500090E043DE089904C085E080930302CF5FF6
:10096000099904C086E080930302CF5F0A9904C00E
:1009700087E080930302CF5F0B9904C088E08093E7
:100980000302CF5F8FEB83B96AE070E080E090E014
:1009900024DE089904C089E080930302CF5F09999F
:1009A00004C08AE080930302CF5F0A9904C08BE001
:1009B00080930302CF5F0B9904C08CE08093030205
:1009C000CF5F8FE783B96AE070E080E090E005DEFA
:1009D000089904C089E080930302CF5F099904C09D
:1009E0008EE080930302CF5F0A9904C08FE080936A
:1009F0000302CF5F0B9904C080E180930302CF5FB5
:100A00008FEF83B9C130C9F4809103029091F30153
:100A1000891729F08093F3011092E7010EC08091AD
:100A2000E7018F5F8093E701853038F09093F20102
:100A30001092F30181E08093DE01CF91089587EE5B
:100A40008093F20180910402882319F047DF10920D
:100A500004028091E80181111092E8018091DE0189
:100A6000813011F41092DE0108950F931F93CF93FC
:100A7000DF931092DB011092DA011092D9011092EB
:100A8000D8011092D7011092D601D6DB84ED90E008
:100A90009093ED018093EC0181E0F1DC68E081E06E
:100AA000CEDB8EE591E0B3DB84EF91E0BDDD81E04C
:100AB000E6DC68E081E0C3DB80E691E0A8DB84EF60
:100AC00091E0B2DD81E0DBDC68E081E0B8DB82E66A
:100AD00091E09DDB84EF91E0A7DD81E0D0DC68E070
:100AE00081E0ADDB84E691E092DB84EF91E09CDD78
:100AF00081E0C5DC68E081E0A2DB86E691E087DB8F
:100B000084EF91E091DD98DB86E091E09093ED0138
:100B10008093EC0181E0B3DC2FEF81EE94E0215073
:100B200080409040E1F700C000008AE491E090939B
:100B3000ED018093EC0181E0A2DCEFEFF1EE24E027
:100B4000E150F0402040E1F700C0000088E891E06B
:100B50009093ED018093EC0181E091DC8FEF91EEB9
:100B6000E4E081509040E040E1F700C000008BE0FD
:100B700092E09093ED018093EC0181E080DCFFEF47
:100B800021EE84E0F15020408040E1F700C00000F9
:100B900063E081E054DB88E691E039DB8EEE92E0A1
:100BA00043DD4ADB61E081E04ADB85E791E02FDB52
:100BB00080E090E056DD61E082E041DB8CE791E08F
:100BC00026DB80E090E04DDD84E893E02DDD809130
:100BD000D6019091D70101969093D7018093D601C9
:100BE00067E081E02CDB87EB91E011DB67E081E0DF
:100BF00026DB8091D6019091D70133DD83E891E027
:100C000006DB8091D6019091D7010B970CF097C02D
:100C10001CD287709078992324F40197886F9F6F76
:100C2000019601969093DB018093DA01FC01EC5F61
:100C3000FE4F80818BBBC0E0D0E046C080910402B3
:100C4000882319F04BDE109204028091E801811193
:100C50001092E8018091DE01813011F41092DE01E2
:100C60008091F20190E02091DA013091DB0182174E
:100C7000930731F58091D8019091D9010A9690930C
:100C8000D9018093D80184ED90E09093ED01809399
:100C9000EC0182E0F4DB89E98BBB6CE082E0CFDA27
:100CA00084EB91E0B4DA6CE082E0C9DA87E891E0A5
:100CB000AEDA61E081E0C3DA80E28093620008C0CE
:100CC00088E090E0B1DC2196C436D1050CF4B6CFB3
:100CD0008091F20190E02091DA013091DB018217DE
:100CE0009307B9F081E190E09093ED018093EC01DE
:100CF00082E0C5DB6CE082E0A2DA84EB91E087DA87
:100D00006CE082E09CDA8DE891E081DA84E0809307
:100D1000620081E88BBB87EE8093F20167E082E09E
:100D20008EDA87EB91E073DA67E082E088DA80910F
:100D3000D8019091D90195DC84EF91E075DC809128
:100D4000D6019091D7010B970CF441CF75DA65E08D
:100D500081E075DA83E991E05ADA00E010E011C031
:100D6000FE01EC5FFE4F80818BBB84E690E05CDC93
:100D7000219602C0C1E0D0E0C930D1058CF30F5FED
:100D80001F4F02301105B4F38FEF8BBB80936200CD
:100D9000C1E0D0E018C063E082E051DA8DEA91E072
:100DA00036DA84EF91E040DC64E082E048DA81EA00
:100DB00091E02DDA8091D8019091D90152DC84EF35
:100DC00091E032DC2196C630D1052CF381E090E031
:100DD0004AD190E09093DD018093DC0162E081E0F4
:100DE0002EDA8CE991E013DA8091DC019091DD013B
:100DF00038DC80ED97E018DC8091D8019091D90122
:100E00002091DC013091DD0128173907ACF5909372
:100E1000DD018093DC01C1E0D0E023C061E081E02E
:100E20000EDA8AEA91E0F3D98FEF8BBB02E610E08D
:100E300084E0F801808384EF91E0F6DB61E081E0FB
:100E4000FED98CE991E0E3D98091DC019091DD013C
:100E500008DC1BBA80E2F801808380E991E0E4DBE2
:100E60002196C630D105D4F26091DC0181E090E09A
:100E700002D184EC99E0D8DBDF91CF911F910F91E3
:100E80000895CF93DF9380E18EBF8FEF8DBF82E017
:100E900090E0E9D090E090930202809301020197E4
:100EA00081F060E081E090E0E6D061E082E090E0F7
:100EB000E2D060E083E090E0DED060E084E090E0AB
:100EC000DAD05FDB7CDB81DB84E690E0ADDB84EDB8
:100ED00090E09093ED018093EC01789481E380930E
:100EE000EB0183E0CCDA1092000221D9BBD9C0E03B
:100EF000D0E011C01CD961E081E0A1D980E065D9C2
:100F000081E063D982E061D98BEB91E080D988E5FB
:100F100092E08ADB21961C161D0664F78DD961E0EC
:100F200081E08DD981EC91E072D969E081E087D9C7
:100F300088EC91E06CD961E082E081D980ED91E0AC
:100F400066D982E390E070DB7ADD8091F201813036
:100F500011F48BDD07C0823011F4DFDB03C0833076
:100F600099F71DDC80E090E0DF91CF91089597FB29
:100F7000072E16F4009406D077FD08D00BD007FC9E
:100F800005D03EF4909581959F4F08957095619599
:100F90007F4F0895AA1BBB1B51E107C0AA1FBB1FAF
:100FA000A617B70710F0A61BB70B881F991F5A95F5
:100FB000A9F780959095BC01CD0108958F929F92DD
:100FC000AF92BF92CF92DF92EF92FF92CF93DF93D7
:100FD000EC01688179818A819B81611571058105A8
:100FE000910521F464E279ED8BE597E02DE133EF93
:100FF00041E050E04DD049015A019B01AC01A7EA04
:10100000B1E462D06B017C01ACEEB4EFA5019401B8
:1010100067D0DC01CB018C0D9D1DAE1DBF1DB7FF40
:1010200003C00197A109B04888839983AA83BB8331
:101030009F77DF91CF91FF90EF90DF90CF90BF909F
:10104000AF909F908F900895B9CF80E091E0B6CF98
:10105000A0E0B0E08093000190930101A093020111
:10106000B09303010895E199FECF9FBB8EBBE09A38
:1010700099278DB30895262FE199FECF9FBB8EBB94
:101080002DBB0FB6F894E29AE19A0FBE019608952F
:10109000052E97FB16F400940FD057FD05D024D0F1
:1010A00007FC02D046F408C0509540953095219534
:1010B0003F4F4F4F5F4F0895909580957095619584
:1010C0007F4F8F4F9F4F089531D0A59F900DB49FB4
:1010D000900DA49F800D911D11240895B7FFF4CFAA
:1010E000F3DF821B930B0895A1E21A2EAA1BBB1BF0
:1010F000FD010DC0AA1FBB1FEE1FFF1FA217B307E4
:10110000E407F50720F0A21BB30BE40BF50B661FF9
:10111000771F881F991F1A9469F7609570958095BD
:1011200090959B01AC01BD01CF010895A29FB00134
:10113000B39FC001A39F700D811D1124911DB29F0B
:0E114000700D811D1124911D0895F894FFCFAC
:10114E0001000000000102040810204080FF303131
:10115E0032333435363738390E080E001F0404008A
:10116E00011D1117111D0100001D091515010100AA
:10117E00484947483A006D3A0073313A007472613B
:10118E006E736D697474696E6700726563656976F6
:10119E00696E6700636F6D706C6574652100350054
:1011AE00340033003200310067616D652073746165
:1011BE007274212100436F756E743A0053636F721F
:1011CE00653A002F3130004E69636521004D697319
:1011DE0073210047414D454F5645520048494748F7
:1011EE002053434F5245203A20002020202020201B
:1011FE0020202020202020202020002047616D6507
:10120E0000312E506C617900322E53636F7265007F
:06121E00332E5457490075
:00000001FF
