:1000000055C0000071C000006FC000006DC000004E
:100010006BC0000069C0000067C0000065C0000040
:1000200063C0000061C000005FC000005DC0000050
:100030005BC0000059C0000057C0000055C0000060
:10004000F4C0000051C000004FC000004DC00000CF
:100050004BC0000049C0000047C0000045C0000080
:1000600043C0000041C000003FC000003DC0000090
:100070003BC0000039C0000037C0000035C00000A0
:1000800033C0000031C000002FC00000E703E903C7
:10009000EB03ED03EF03F103F303F503F703F903B8
:1000A000FB03FD03FF0301040304050411241FBE29
:1000B000CFEFD0E1DEBFCDBF12E0A0E0B1E0E4E4DD
:1000C000F1E100E00BBF02C007900D92AE32B10724
:1000D000D9F722E0AEE2B2E001C01D92AE35B20720
:1000E000E1F7A1D40C94A0088BCF11BA85B3867F19
:1000F00085BB85B3826F85BB85B3846F85BB8799CC
:10010000F5CF8FEF81BB8FE39FE10197F1F700C03F
:1001100000000895CF93C82FE8DFC2BB85B3867F68
:1001200085BB85B3857F85BB85B3846F85BB85B370
:10013000807F85BB8FEA94E00197F1F700C0000053
:10014000CF9108958FEF81BB94B384BB8FE697E185
:100150000197F1F700C0000080E382BB85B3807F88
:1001600085BB87E696E00197F1F700C0000085B3F4
:10017000807F85BB95E39A95F1F7000085B3807F7A
:1001800085BB88E3C7DF88E0C5DF81E0C3DF8FE0A0
:10019000C1CF0895CF93C82FA8DF85B3816F85BBEA
:1001A00085B3857F85BB85B3846F85BB8AE18A95DE
:1001B000F1F700C0C2BB9AE19A95F1F700C085B390
:1001C000837F85BB8FEA94E00197F1F700C00000C0
:1001D000CF9108950F931F93CF93DF938C01C0E0CD
:1001E000D0E0F801EC0FFD1F8081882319F02196E3
:1001F000D1DFF7CFDF91CF911F910F91089581E06B
:1002000089CF089590E001970024969587950794EB
:10021000969587950794982F802D70E0615071090D
:10022000860F971F806876CF08951F920F920FB6A2
:100230000F9211248F939F9380E782BF81E0809378
:100240005D0280912F0290913002019690933002CE
:1002500080932F028436910538F01092300210926C
:100260002F0281E0809332029F918F910F900FBEF9
:100270000F901F9018958FEF8ABB8BBB88BB87BBF5
:1002800085BB90EF94BB12BA81BB92B99FE093B942
:100290002FEF31EE94E0215030409040E1F700C064
:1002A00000001BBA18BA98EF909361008093650024
:1002B00010926400089587E083BF12BE81E087BF7B
:1002C00008950F931F9303C00000C901B8018B016B
:1002D0009C010150110921093109672B682B692BF9
:1002E00099F71F910F91089520E030E009C00F9217
:1002F000000000000000000000000F902F5F3F4F43
:1003000028173907A0F308950F931F93CF93DF9316
:100310008C01C0E0D0E00DC08AEF90E0E5DF8AEF0D
:1003200090E0E2DF8AEF90E0DFDF8AEF90E0DCDF51
:100330002196C017D10780F3DF91CF911F910F91C4
:100340000895CF9380913102853078F08FE083B9A2
:100350006AE070E080E090E0B4DF81B18F708F30B0
:1003600009F09EC0109231029BC08FEE83B96AE003
:1003700070E080E090E0A5DF089905C081E08093FF
:100380005C02C1E001C0C0E0099904C082E0809332
:100390005C02CF5F0A9904C083E080935C02CF5F68
:1003A0000B9904C08DE080935C02CF5F8FED83B921
:1003B0006AE070E080E090E084DF089904C084E0A7
:1003C00080935C02CF5F099904C085E080935C0252
:1003D000CF5F0A9904C086E080935C02CF5F0B99DF
:1003E00004C08EE080935C02CF5F8FEB83B96AE03C
:1003F00070E080E090E065DF089904C087E08093BA
:100400005C02CF5F099904C088E080935C02CF5FF3
:100410000A9904C089E080935C02CF5F0B9904C005
:100420008FE080935C02CF5F8FE783B96AE070E072
:1004300080E090E046DF089904C08BE080935C0286
:10044000CF5F099904C08AE080935C02CF5F0A996C
:1004500004C08CE080935C02CF5F0B9904C080E104
:1004600080935C02CF5F8FEF83B9C130C9F4809174
:100470005C0290914D02891729F080934D021092F1
:1004800031020EC0809131028F5F8093310285303E
:1004900038F090934A0210924D0281E080932E0230
:1004A000CF9108958091010188BB6FE081E0AADEC1
:1004B00085ED91E08FDE6FE081E0A4DE80915C024B
:1004C0004AE050E060E572E090E022D380E592E0FF
:1004D00081DE60915A0281E0860F80935A0282E0A9
:1004E00091DE81E357CE08958091020188BB6FE0D1
:1004F00081E088DE85ED91E06DDE6FE081E082DEF7
:1005000080915C024AE050E060E572E090E000D348
:1005100080E592E05FDE60915A0281E0860F809371
:100520005A0282E06FDE82E335CE089580910301A6
:1005300088BB6FE081E066DE85ED91E04BDE6FE029
:1005400081E060DE80915C024AE050E060E572E0AC
:1005500090E0DED280E592E03DDE60915A0281E0DB
:10056000860F80935A0282E04DDE83E313CE089516
:100570008091040188BB6FE081E044DE85ED91E06D
:1005800029DE8FEC97E00197F1F700C000006FE0E3
:1005900081E038DE80915C024AE050E060E572E084
:1005A00090E0B6D280E592E015DE60915A0281E0DB
:1005B000860F80935A0282E025DE84E3EBCD089516
:1005C0008091050188BB6FE081E01CDE85ED91E044
:1005D00001DE6FE081E016DE80915C024AE050E0CF
:1005E00060E572E090E094D280E592E0F3DD609106
:1005F0005A0281E0860F80935A0282E003DE85E38F
:10060000C9CD08958091060188BB6FE081E0FADDD5
:1006100085ED91E0DFDD6FE081E0F4DD80915C024B
:100620004AE050E060E572E090E072D280E592E04E
:10063000D1DD60915A0281E0860F80935A0282E0F8
:10064000E1DD86E3A7CD08958091070188BB6FE0C7
:1006500081E0D8DD85ED91E0BDDD6FE081E0D2DDA8
:1006600080915C024AE050E060E572E090E050D298
:1006700080E592E0AFDD60915A0281E0860F8093C1
:100680005A0282E0BFDD87E385CD0895809108019D
:1006900088BB6FE081E0B6DD85ED91E09BDD6FE02A
:1006A00081E0B0DD80915C024AE050E060E572E0FC
:1006B00090E02ED280E592E08DDD60915A0281E0DB
:1006C000860F80935A0282E09DDD88E363CD089512
:1006D0008091090188BB6FE081E094DD85ED91E0B8
:1006E00079DD6FE081E08EDD80915C024AE050E0D0
:1006F00060E572E090E00CD280E592E06BDD609105
:100700005A0281E0860F80935A0282E07BDD89E302
:1007100041CD08958091000188BB6FE081E072DDDA
:1007200085ED91E057DD6FE081E06CDD80915C024A
:100730004AE050E060E572E090E0EAD180E32ADD33
:1007400060915A0281E0860F80935A0282E05ADD5E
:1007500080E320CD089553DD61E082E053DD8CE23B
:1007600091E038CD08954BDD61E082E04BDD8EE213
:1007700091E030CD089543DD61E082E043DD80E328
:1007800091E028CD08953BDD61E082E03BDD8BE325
:1007900091E020CD089533DD61E082E033DD86E431
:1007A00091E018CD08952BDD61E082E02BDD8DE432
:1007B00091E010CD0895E0914A028E2F90E0FC0167
:1007C0003197E031F10510F5EA5BFF4F98C16ACE31
:1007D00008958ACE0895AACE0895CACE0895F0CE7F
:1007E000089510CF089530CF089550CF089570CF59
:1007F000089590CF0895AFCF0895B5CF0895BBCF9A
:100800000895C1CF0895C7CF0895CDCF0895E19938
:10081000FECF1FBE90E09FBB8EBB6DBB8CB38460D0
:100820008CBB8CB382608CBB80E88FBF0895E1994C
:10083000FECF90E09FBB8EBB8CB381608CBB8DB331
:100840000895DDDC61E081E0DDDC80E891E0C2DC80
:1008500061E082E0D7DC8FE891E0BCDC8FE19EE4D0
:100860000197F1F700C0000008950F931F93CF93F5
:10087000DF9361E081E0C6DC8FE991E0ABDC61E011
:1008800082E0C0DCC0E0D0E00BC08E010B5B1D4FEE
:10089000F80160818C2FBBDF83E6F801808321960D
:1008A000C530D10594F3ABDC61E081E0ABDC81EBDA
:1008B00091E090DC61E082E0A5DC82EC91E08ADCF2
:1008C0008FE39CE90197F1F700C00000C0E0D0E0A1
:1008D00027C08C2FACDF1F928F93DF93CF9388EDCF
:1008E00091E09F938F9385E392E09F938F933DD107
:1008F00061E082E087DC85E392E06CDCFFEF29EFCA
:1009000080E0F15020408040E1F700C000002196D7
:10091000EDB7FEB738960FB6F894FEBF0FBEEDBF29
:10092000C530D105B4F210925B0210924C028CE0FB
:1009300080935A0286DFDF91CF911F910F91089526
:1009400081E08BBB2FEF40E782E0215040408040A8
:10095000E1F700C0000020E030E00EC08BB3880F4C
:100960008BBB9FEF40E782E0915040408040E1F731
:1009700000C000002F5F3F4F293031057CF3089500
:100980001F93CF93DF93C0E0D0E011E009C08C2F1C
:100990004EDFFE01EB5BFD4F9081891310E0219645
:1009A000C530D105A4F31130F9F429DC61E081E010
:1009B00029DC88EE91E00EDC61E082E023DC86EF4A
:1009C00091E008DC8FE39CE90197F1F700C000009B
:1009D000B7DF9FEF21EE84E0915020408040E1F7A7
:1009E00000C000001BBA13C00ADC61E081E00ADC31
:1009F00085E092E0EFDB61E082E004DC83E192E0FD
:100A0000E9DB8FE39CE90197F1F700C000008CE07F
:100A100080935A0210925B0210924B0212DFDF9118
:100A2000CF911F91089510924F0280E18EBF8FEFFA
:100A30008DBF21DC40DC84E690E066DC83DB8CE06B
:100A400080935A0210925B02789461E081E0DADBD5
:100A500082E292E0BFDB2FEF81EE94E021508040F4
:100A60009040E1F700C0000080E380934E02C7DBB6
:100A700061E081E0C7DBE5DE80915D02882319F04B
:100A800060DC10925D02809132028111109232027C
:100A900080912E02813081F78EDEE0915B02F0E0E2
:100AA000EB5BFD4F80914A02808310922E0261E041
:100AB00082E0A8DB80914A028B3028F480915B02AF
:100AC0008F5F80935B0280914C02813029F480918A
:100AD0005B02853008F0C9DE80914B02813029F439
:100AE00080915B02853008F04BDF2FEF89EF90E0BB
:100AF000215080409040E1F700C00000BDCFEE0FD4
:100B0000FF1F0024001C0BBE0790F691E02D0994F6
:100B10004532510518F4423008F004C0FB01108240
:100B2000CB010895BB274A3031F4992322F4BDE26A
:100B3000909581959F4F01C0BB27FB015527AA27A0
:100B4000880F991FAA1FA41710F0A41B839550515A
:100B5000B9F7A05DAA3308F0A95DA193009779F7D2
:100B6000B111B1931192CB0141C20F931F93CF9357
:100B7000DF93CDB7DEB72E970FB6F894DEBF0FBE6A
:100B8000CDBF0D891E8986E08C831A8309838FEF80
:100B90009FE79E838D83AE01475E5F4F6F89788D9F
:100BA000CE01019610D0EF81F885E00FF11F108281
:100BB0002E960FB6F894DEBF0FBECDBFDF91CF915A
:100BC0001F910F9108952F923F924F925F926F92D3
:100BD0007F928F929F92AF92BF92CF92DF92EF92CD
:100BE000FF920F931F93CF93DF93CDB7DEB72B9771
:100BF0000FB6F894DEBF0FBECDBF6C017B018A013A
:100C0000FC0117821682838181FFBFC1CE0101964C
:100C10003C01F6019381F70193FD859193FF81914A
:100C20007F01882309F4ADC1853239F493FD8591A4
:100C300093FF81917F01853221F4B60190E0E6D1E6
:100C4000E8CF912C212C312CFFE1F315D8F08B3219
:100C500079F038F4803279F08332A1F4232D2061C9
:100C60001DC08D3261F0803369F4232D216016C0E0
:100C7000832D8260382EE32DE4603E2E2AC0F32DB2
:100C8000F8601DC037FC2DC020ED280F2A3040F041
:100C90008E32B9F436FC75C1232D2064322E19C072
:100CA00036FE06C08AE0989E200D1124922E11C0B7
:100CB000EAE02E9E200D1124222EF32DF0623F2E0D
:100CC00008C08C3621F4832D8068382E02C0883607
:100CD00041F4F70193FD859193FF81917F0181118B
:100CE000B3CF982F9F7D9554933028F40C5F1F4FFE
:100CF0009FE399830DC0833631F0833771F08335DC
:100D000009F055C020C0F801808189830E5F1F4F14
:100D100088248394912C530112C02801F2E04F0ED5
:100D2000511CF801A080B18036FE03C0692D70E02F
:100D300002C06FEF7FEFC5014ED14C018201F32D50
:100D4000FF773F2E15C0280122E0420E511CF8010A
:100D5000A080B18036FE03C0692D70E002C06FEF45
:100D60007FEFC5012DD14C01F32DF0683F2E82019C
:100D700033FC19C0822D90E088169906A0F4B601C4
:100D800080E290E043D12A94F5CFF50137FC8591BC
:100D900037FE81915F01B60190E038D121102A948D
:100DA00021E0821A91088114910479F7E1C0843618
:100DB00011F0893639F5F80137FE07C0608171817D
:100DC000828193810C5F1F4F08C060817181072E63
:100DD000000C880B990B0E5F1F4FF32DFF763F2EF3
:100DE00097FF09C090958095709561957F4F8F4FC3
:100DF0009F4FF0683F2E2AE030E0A30143D1882EB8
:100E0000861844C0853731F4232D2F7EB22E2AE078
:100E100030E025C0932D997FB92E8F36C1F018F49C
:100E2000883579F0AEC0803719F0883721F0A9C035
:100E3000E92FE061BE2EB4FE0DC0FB2DF460BF2E85
:100E400009C034FE0AC0292F2660B22E06C028E051
:100E500030E005C020E130E002C020E132E0F801DE
:100E6000B7FE07C060817181828193810C5F1F4F43
:100E700006C06081718180E090E00E5F1F4FA3018A
:100E800001D1882E8618FB2DFF773F2E36FE0DC030
:100E9000232D2E7FA22E891458F434FE0BC032FC71
:100EA00009C0832D8E7EA82E05C0B82CA32C03C0AC
:100EB000B82C01C0B92CA4FE0FC0FE01E80DF11D35
:100EC0008081803321F49A2D997EA92E09C0A2FE3B
:100ED00006C0B394B39404C08A2D867809F0B39405
:100EE000A3FC10C0A0FE06C0B21480F4280C922C03
:100EF0009B180DC0B21458F4B60180E290E086D081
:100F0000B394F8CFB21418F42B1802C0982C212CEB
:100F1000A4FE0FC0B60180E390E078D0A2FE16C018
:100F2000A1FC03C088E790E002C088E590E0B6012C
:100F30000CC08A2D867851F0A1FE02C08BE201C060
:100F400080E2A7FC8DE2B60190E060D0891430F415
:100F5000B60180E390E05AD09A94F8CF8A94F301D6
:100F6000E80DF11D8081B60190E050D08110F6CFE0
:100F7000222009F44ECEB60180E290E047D02A94B8
:100F8000F7CFF6018681978102C08FEF9FEF2B96F6
:100F90000FB6F894DEBF0FBECDBFDF91CF911F918A
:100FA0000F91FF90EF90DF90CF90BF90AF909F9008
:100FB0008F907F906F905F904F903F902F9008950B
:100FC000FC010590615070400110D8F78095909514
:100FD0008E0F9F1F0895FC01615070400190011019
:100FE000D8F7809590958E0F9F1F0895DC01FC0126
:100FF000672F71917723E1F7329704C07C916D934D
:1010000070836291AE17BF07C8F308950F931F93C3
:10101000CF93DF93FB01238121FD03C08FEF9FEF6F
:101020002CC022FF16C0468157812481358142178A
:10103000530744F4A081B1819D012F5F3F4F31835D
:1010400020838C93268137812F5F3F4F3783268300
:1010500014C08B01EC01FB010084F185E02D0995A2
:10106000892BE1F6D80116968D919C9117970196E0
:1010700017969C938E931697CE01DF91CF911F9177
:101080000F910895FA01AA27283051F1203181F1FA
:10109000E8946F936E7F6E5F7F4F8F4F9F4FAF4F80
:1010A000B1E03ED0B4E03CD0670F781F891F9A1F93
:1010B000A11D680F791F8A1F911DA11D6A0F711D47
:1010C000811D911DA11D20D009F468943F912AE053
:1010D000269F11243019305D3193DEF6CF0108953B
:1010E000462F4770405D4193B3E00FD0C9F7F6CF6C
:1010F000462F4F70405D4A3318F0495D31FD405234
:10110000419302D0A9F7EACFB4E0A69597958795C9
:1011100077956795BA95C9F70097610571050895A8
:101120009B01AC010A2E0694579547953795279554
:10113000BA95C9F7620F731F841F951FA01D0895EC
:04114000F894FFCF51
:101144003F065B4F666D7C077F6F54455354204BBD
:1011540049543A4D544B2D41543800204B455920A5
:1011640064617461203D202E2E2020002A0023007B
:1011740063616C6C20706C616E650063616C6C20E3
:10118400612063617200696E7665737400676574CB
:10119400206D6F6E657900454550524F4D20577252
:1011A40069746500416464723A3078253278203D70
:1011B40020256300454550524F4D2052656164001F
:1011C400446F6F724B65792053797374656D005069
:1011D400726573734B65792031316F7231320070EF
:1011E40072657373206E65775F4B6579204E6F204F
:1011F400005361766564204E6F2E52656164696E9A
:1012040067002020202020202020202020202020B3
:101214002020202020202000416464723A30782568
:101224003278203D20256400476F6F6F6F6F642014
:101234006A6F6F6F6200204C454473204F6E6E6E70
:101244006E2E2E2E0042616161616164206A6F6FAF
:101254006F6200204C454473204F666666662E2EEE
:0E1264002E0048656C6C6F77204156520000DA
:00000001FF
