S00B00004C43442E7372656346
S113000045C0000058C0000056C0000054C00000A5
S113001052C0000096C20000AFC20000C8C2000077
S1130020D4C2000048C0000046C0000044C0000024
S113003042C0000040C000003EC000003CC00000C0
S11300403AC0000038C0000036C0000034C00000D0
S113005032C0000030C000002EC000002CC00000E0
S11300602AC0000028C0000026C0000024C00000F0
S113007022C0000020C000001EC000001CC0000000
S11300801AC0000018C0000016C0000011241FBED2
S1130090CFEFD0E1DEBFCDBF11E0A0E0B1E0EAEEEA
S11300A0F5E000E00BBF02C007900D92A834B10741
S11300B0D9F78BD198C2A4CF11BA85B3867F85BBFB
S11300C085B3826F85BB85B3846F85BB8799F5CF74
S11300D08FEF81BB2FEF89EF90E02150804090405B
S11300E0E1F700C000000895CF93C82FE5DFC2BB3D
S11300F085B3867F85BB85B3857F85BB85B3846FD8
S113010085BB85B3807F85BB8FED9EE20197F1F7B8
S113011000C00000CF9108958FEF81BB94B384BBDE
S11301208FE59AEE0197F1F700C0000080E382BBEF
S113013085B3807F85BB8FE090E40197F1F700C021
S1130140000085B3807F85BB8FE891E00197F1F7CC
S113015000C0000085B3807F85BB88E3C5DF88E0ED
S1130160C3DF81E0C1DF8FE0BFCF0895CF93C82FF5
S1130170A3DF85B3816F85BB85B3857F85BB85B3DD
S1130180846F85BB87EC90E00197F1F700C0000015
S1130190C2BB87EC90E00197F1F700C0000085B383
S11301A0837F85BB8FED9EE20197F1F700C00000CD
S11301B0CF9108950F931F93CF93DF938C01C0E0E9
S11301C0D0E0F801EC0FFD1F8081882319F02196FF
S11301D0CDDFF7CFDF91CF911F910F91089581E08B
S11301E083CF089590E0019700249695879507940E
S11301F0969587950794982F802D70E0615071092A
S1130200860F971F806870CF08950F931F93CF9325
S1130210DF93CDB7DEB7A8970FB6F894DEBF0FBE55
S1130220CDBF88E0E4E1F1E0DE01119601900D928A
S11302308A95E1F788E0ECE1F1E0DE01199601909E
S11302400D928A95E1F788E0E4E2F1E0DE0151964F
S113025001900D928A95E1F788E0ECE2F1E0DE018D
S1130260599601900D928A95E1F788E0E4E3F1E074
S1130270DE01919601900D928A95E1F78FE99FE056
S11302800197F1F700C0000080E42EDF8FE99FE0C2
S11302900197F1F700C0000000E010E010C0E1E0B9
S11302A0F0E0EC0FFD1FE00FF11F80815FDF8FE9AD
S11302B09FE00197F1F700C000000F5F1F4F083067
S11302C011056CF388E410DF8FE99FE00197F1F7E3
S11302D000C0000000E010E010C0E9E0F0E0EC0F26
S11302E0FD1FE00FF11F808141DF8FE99FE001973F
S11302F0F1F700C000000F5F1F4F083011056CF3C9
S113030080E5F2DE8FE99FE00197F1F700C000007D
S113031000E010E010C0E1E1F0E0EC0FFD1FE00FA1
S1130320F11F808123DF8FE99FE00197F1F700C07F
S113033000000F5F1F4F083011056CF388E5D4DE11
S11303408FE99FE00197F1F700C0000000E010E0A2
S113035010C0E9E1F0E0EC0FFD1FE00FF11F808118
S113036005DF8FE99FE00197F1F700C000000F5F00
S11303701F4F083011056CF380E6B6DE8FE99FE06D
S11303800197F1F700C0000000E010E010C0E1E2C6
S1130390F0E0EC0FFD1FE00FF11F8081E7DE8FE935
S11303A09FE00197F1F700C000000F5F1F4F083076
S11303B011056CF3A8960FB6F894DEBF0FBECDBF3F
S11303C0DF91CF911F910F910895CFEFCABBC4BBAA
S11303D0C1BB10926100C0936200C2B9D0EFD3B91F
S11303E02FEF83ED90E3215080409040E1F700C06F
S11303F000001BBA15BA90DE8FE39CE90197F1F770
S113040000C0000061E081E0EDDE80E3AFDECBBB45
S11304109FEF23ED80E3915020408040E1F700C03E
S1130420000061E081E0DEDE8CE391E0C3DE9FEF5B
S113043023ED80E3915020408040E1F700C00000AC
S113044060E082E0CFDE80E391DE9FEF23ED80E386
S1130450915020408040E1F700C000001BBA9FEF9C
S113046023ED80E3915020408040E1F700C000007C
S1130470D9BF8AEA8ABF80E88FBF10E3C0E0D0E02A
S11304800099FECF9FEF29EF80E0915020408040FB
S1130490E1F700C000002196C930D10511F4C0E095
S11304A0D0E0FE01E65FFE4F80818BBBFE01E05091
S11304B0FF4F808185BB6C2F6F5F82E093DE1F5FEF
S11304C0812F54DE9FEF21EE84E091502040804044
S11304D0E1F700C00000183381F497DE6BE082E09E
S11304E081DE80E043DE81E041DE82E03FDE83E0C6
S11304F03DDE84E03BDE8FE339DE193369F46FDEE1
S113050061E081E06FDE8CE391E054DE60E082E044
S113051069DE80E32BDE10E39FEF23EC89E091504A
S113052020408040E1F700C00000009BFECF9FEF19
S113053029EF80E0915020408040E1F700C00000A6
S11305409FCF1F920F920FB60F9211242F938F9368
S11305509F9386E385BB2FEF81EE94E0215080408A
S11305609040E1F700C000009F918F912F910F9070
S11305700FBE0F901F9018951F920F920FB60F92F7
S113058011242F938F939F9389E085BB2FEF81EEE6
S113059094E0215080409040E1F700C000009F911A
S11305A08F912F910F900FBE0F901F9018951F924F
S11305B00F920FB60F9211248F938BEF85BB8F91FF
S11305C00F900FBE0F901F9018951F920F920FB6A9
S11305D00F9211248F9387EF85BB8F910F900FBEDD
S10D05E00F901F901895F894FFCFB8
S11305EA3F065B4F666D7C077F4000FEFDFBF7EF1D
S11305FADFBF7FFF1D0505001F11111F01091D091A
S113060A1515151509151509000A151509151715CE
S113061A090100000E11110E000A1F0048656C6CD6
S10B062A6F77204156520000D5
S9030000FC
