S0160000646F6F726B65795F7069657A7A6F2E7372656311
S113000055C0000071C000006FC000006DC000004A
S11300106BC0000069C0000067C0000065C000003C
S113002063C0000061C0000074C100005DC0000036
S11300305BC0000059C0000057C0000055C000005C
S11300402CC1000051C000004FC000004DC0000092
S11300504BC0000049C0000047C0000045C000007C
S113006043C0000041C000003FC000003DC000008C
S11300703BC0000039C0000037C0000035C000009C
S113008033C0000031C000002FC00000FC04FE0497
S1130090000502050405060508050A050C050E05FC
S11300A0100512051405160518051A0511241FBE9E
S11300B0CFEFD0E1DEBFCDBF12E0A0E0B1E0E4EBD2
S11300C0F3E100E00BBF02C007900D92AE31B1071F
S11300D0D9F722E0AEE1B2E001C01D92A435B20727
S11300E0E1F7C2D50C94D8098BCF11BA85B3867FBA
S11300F085BB85B3826F85BB85B3846F85BB8799C8
S1130100F5CF8FEF81BB2FEF89EF90E02150804036
S11301109040E1F700C000000895CF93C82FE5DFB9
S1130120C2BB85B3867F85BB85B3857F85BB85B31D
S1130130846F85BB85B3807F85BB8FED9EE201977D
S1130140F1F700C00000CF9108958FEF81BB94B305
S113015084BB8FE59AEE0197F1F700C0000080E3BD
S113016082BB85B3807F85BB8FE090E40197F1F774
S113017000C0000085B3807F85BB8FE891E00197C4
S1130180F1F700C0000085B3807F85BB88E3C5DF3D
S113019088E0C3DF81E0C1DF8FE0BFCF0895CF9354
S11301A0C82FA3DF85B3816F85BB85B3857F85BBEE
S11301B085B3846F85BB87EC90E00197F1F700C0AD
S11301C00000C2BB87EC90E00197F1F700C000008B
S11301D085B3837F85BB8FED9EE20197F1F700C065
S11301E00000CF9108950F931F93CF93DF938C0159
S11301F0C0E0D0E0F801EC0FFD1F8081882319F0E6
S11302002196CDDFF7CFDF91CF911F910F91089504
S113021081E083CF089590E0019700249695879517
S11302200794969587950794982F802D70E06150D8
S11302307109860F971F806870CF08958FEF8ABB6E
S11302408BBB88BB87BB85BB90EF94BB12BA81BBC9
S113025092B99FE093B92FEF33ED90E321503040F2
S11302609040E1F700C000001BBA18BA98EF9093D1
S11302706100809364008EEF80936500089587E0A9
S113028083BF12BE81E087BF089583E085BD84EDFE
S113029084BD87B7806487BF08951F920F920FB6FD
S11302A00F9211248F939F9380E782BF81E0809304
S11302B0520280912102909122020196909322028F
S11302C0809321028436910538F010922202109214
S11302D0210281E0809324029F918F910F900FBEA1
S11302E00F901F90189590913702913341F420E9B3
S11302F031E03093420220934102809353020895E7
S113030080E991E09093420280934102109253025B
S113031008951F920F920FB60F9211240BB60F92ED
S11303202F933F934F935F936F937F938F939F93F9
S1130330AF93BF93EF93FF9380911E0290911F029E
S1130340009719F488E884BD0DC08130910519F433
S11303508AE684BD07C0029719F48CE484BD02C008
S113036084E284BD2091530291E08091370280336E
S113037009F090E081E0211180E0892B31F0E5E67D
S1130380F0E080818E7F808330C080914102909123
S1130390420201979093420280934102883C910566
S11303A038F0E5E6F0E0908181E0892780831DC084
S11303B0009731F0E5E6F0E080818E7F808315C000
S11303C0892B99F4215020935302211102C098DF04
S11303D00CC0E5E6F0E0908181E08927808380E924
S11303E091E09093420280934102FF91EF91BF917B
S11303F0AF919F918F917F916F915F914F913F91B9
S11304002F910F900BBE0F900FBE0F901F90189559
S11304100F931F9303C00000C901B8018B019C0115
S11304200150110921093109672B682B692B99F7B0
S11304301F910F91089520E030E009C00F92000051
S113044000000000000000000F902F5F3F4F2817AE
S11304503907A0F308950F931F93CF93DF938C0173
S1130460C0E0D0E00DC08AEF90E0E5DF8AEF90E0D5
S1130470E2DF8AEF90E0DFDF8AEF90E0DCDF2196B5
S1130480C017D10780F3DF91CF911F910F91089589
S1130490CF9380912302853078F08FE083B96AE0AE
S11304A070E080E090E0B4DF81B18F708F3009F0AC
S11304B09EC0109223029BC08FEE83B96AE070E065
S11304C080E090E0A5DF089905C081E080935102A7
S11304D0C1E001C0C0E0099904C084E080935102E6
S11304E0CF5F0A9904C087E080935102CF5F0B99D4
S11304F004C08BE080935102CF5F8FED83B96AE033
S113050070E080E090E084DF089904C082E080938A
S11305105102CF5F099904C085E080935102CF5FF7
S11305200A9904C088E080935102CF5F0B9904C0FC
S11305308AE080935102CF5F8FEB83B96AE070E069
S113054080E090E065DF089904C083E08093510265
S1130550CF5F099904C086E080935102CF5F0A9966
S113056004C089E080935102CF5F0B9904C08CE0F2
S113057080935102CF5F8FE783B96AE070E080E037
S113058090E046DF089904C08DE080935102CF5F6C
S1130590099904C08EE080935102CF5F0A9904C088
S11305A08FE080935102CF5F0B9904C080E1809368
S11305B05102CF5F8FEF83B9C130C9F480915102EA
S11305C090914002891729F08093400210922302EF
S11305D00EC0809123028F5F80932302853038F010
S11305E090933D021092400281E080932002CF91CB
S11305F008958091010188BB6FE081E00CDE86ECF8
S113060091E0F1DD6FE081E006DE809151024AE085
S113061050E065E472E090E0B3D385E492E0E3DD7A
S113062060914F0281E0860F80934F0282E0F3DDF8
S113063081E3B5CD08958091020188BB6FE081E02C
S1130640EADD86EC91E0CFDD6FE081E0E4DD8091CE
S113065051024AE050E065E472E090E091D385E411
S113066092E0C1DD60914F0281E0860F80934F02DA
S113067082E0D1DD82E393CD08958091030188BBAC
S11306806FE081E0C8DD86EC91E0ADDD6FE081E0F4
S1130690C2DD809151024AE050E065E472E090E0EE
S11306A06FD385E492E09FDD60914F0281E0860F75
S11306B080934F0282E0AFDD83E371CD0895809192
S11306C0040188BB6FE081E0A6DD86EC91E08BDD60
S11306D08FE19EE40197F1F700C000006FE081E034
S11306E09ADD809151024AE050E065E472E090E0C6
S11306F047D385E492E077DD60914F0281E0860F75
S113070080934F0282E087DD84E349CD0895809190
S1130710050188BB6FE081E07EDD86EC91E063DD5E
S11307206FE081E078DD809151024AE050E065E4B9
S113073072E090E025D385E492E055DD60914F02AC
S113074081E0860F80934F0282E065DD85E327CD4B
S113075008958091060188BB6FE081E05CDD86EC42
S113076091E041DD6FE081E056DD809151024AE085
S113077050E065E472E090E003D385E492E033DD79
S113078060914F0281E0860F80934F0282E043DD47
S113079086E305CD08958091070188BB6FE081E071
S11307A03ADD86EC91E01FDD6FE081E034DD80917D
S11307B051024AE050E065E472E090E0E1D285E461
S11307C092E011DD60914F0281E0860F80934F0229
S11307D082E021DD87E3E3CC08958091080188BBA2
S11307E06FE081E018DD86EC91E0FDDC6FE081E0F4
S11307F012DD809151024AE050E065E472E090E03D
S1130800BFD285E492E0EFDC60914F0281E0860F75
S113081080934F0282E0FFDC88E3C1CC089580918D
S1130820090188BB6FE081E0F6DC86EC91E0DBDC5B
S11308306FE081E0F0DC809151024AE050E065E431
S113084072E090E09DD285E492E0CDDC60914F02AD
S113085081E0860F80934F0282E0DDDC89E39FCC48
S113086008958091000188BB6FE081E0D4DC86ECC0
S113087091E0B9DC6FE081E0CEDC809151024AE086
S113088050E065E472E090E07BD280E388DC609124
S11308904F0281E0860F80934F0282E0BCDC80E34C
S11308A07ECC08956FE081E0B6DC86EC91E09BDCC1
S11308B06FE081E0B0DC809151024AE050E065E4F1
S11308C072E090E05DD285E492E08DDC81E080937B
S11308D03F029EDC61E081E09EDC8CE291E083DCFF
S11308E061E082E098DC8BEB91E07DCC08956FE0D1
S11308F081E091DC86EC91E076DC6FE081E08BDCDA
S1130900809151024AE050E065E472E090E038D210
S113091085E492E068DC81E080933E0279DC61E06A
S113092081E079DC8AE391E05EDC61E082E073DC03
S11309308BEB91E058CC08956FE081E06CDC86ECA1
S113094091E051DC6FE081E066DC809151024AE085
S113095050E065E472E090E013D285E492E043CC89
S113096008956FE081E057DC86EC91E03CDC6FE0B9
S113097081E051DC809151024AE050E065E472E08C
S113098090E0FED185E492E02ECC08956FE081E002
S113099042DC86EC91E027DC6FE081E03CDC809176
S11309A051024AE050E065E472E090E0E9D185E468
S11309B092E019CC08956FE081E02DDC86EC91E0A3
S11309C012DC6FE081E027DC809151024AE050E0C4
S11309D065E472E090E0D4D185E492E004CC08951B
S11309E0E0913D028E2F90E0FC013197E031F1055A
S11309F010F5EA5BFF4FBBC1FCCD08951CCE0895F2
S1130A003CCE08955CCE089582CE0895A2CE08957A
S1130A10C2CE0895E2CE089502CF089522CF08955C
S1130A2041CF089564CF089587CF08959ACF08954C
S1130A30ADCF0895C0CF0895E199FECF1FBE90E0D9
S1130A409FBB8EBB6DBB8CB384608CBB8CB382604C
S1130A508CBB80E88FBF0895E199FECF90E09FBBE7
S1130A608EBB8CB381608CBB8DB30895D1DB61E008
S1130A7081E0D1DB81E791E0B6DB61E082E0CBDBB2
S1130A8080E891E0B0DB2FEF80E792E021508040D6
S1130A909040E1F700C0000008950F931F93CF9397
S1130AA0DF9361E081E0B7DB80E991E09CDB61E00A
S1130AB082E0B1DBC0E0D0E00BC08E01085C1D4FCA
S1130AC0F80160818C2FB8DF83E6F80180832196DA
S1130AD0C530D10594F39CDB61E081E09CDB82EAC4
S1130AE091E081DB61E082E096DB83EB91E07BDBEC
S1130AF0FFEF21EE84E0F15020408040E1F700C098
S1130B000000C0E0D0E027C08C2FA6DF1F928F9397
S1130B10DF93CF9389EC91E09F938F9387E292E0E8
S1130B209F938F935AD161E082E075DB87E292E074
S1130B305ADBFFEF23EC89E0F15020408040E1F7DD
S1130B4000C000002196EDB7FEB738960FB6F894B2
S1130B50FEBF0FBEEDBFC530D105B4F210925002F6
S1130B6010923F028CE080934F0280DFDF91CF919F
S1130B701F910F91089581E08BBB2FEF49E688E127
S1130B80215040408040E1F700C0000020E030E008
S1130B900EC08BB3880F8BBB9FEF49E688E1915061
S1130BA040408040E1F700C000002F5F3F4F2930F4
S1130BB031057CF308951F93CF93DF93C0E0D0E019
S1130BC011E009C08C2F48DFFE01E85CFD4F9081E5
S1130BD0891310E02196C530D105A4F3113011F525
S1130BE017DB61E081E017DB89ED91E0FCDA61E07D
S1130BF082E011DB87EE91E0F6DA2FEF81EE94E0EC
S1130C00215080409040E1F700C00000B4DF2FEF96
S1130C1083ED90E3215080409040E1F700C0000054
S1130C201BBA16C0F5DA61E081E0F5DA86EF91E0EF
S1130C30DADA61E082E0EFDA84E092E0D4DA2FEFEE
S1130C4081EE94E0215080409040E1F700C0000024
S1130C508CE080934F021092500210923E0206DF05
S1130C60DF91CF911F9108951092440280E18EBFCD
S1130C708FEF8DBFE3DA03DB08DB84E690E0EBDB88
S1130C8064DA8CE080934F0210925002789461E011
S1130C9081E0C1DA83E192E0A6DA2FEF83ED90E3FD
S1130CA0215080409040E1F700C0000080E3809331
S1130CB04302AEDA61E081E0AEDA81E38093370289
S1130CC084E011DBD3DE80915202882319F0E0DB4B
S1130CD01092520280912402811110922402809178
S1130CE02002813081F77CDE82E0FDDA80911E02F1
S1130CF090911F02019690931F0280931E02049705
S1130D0024F010921F0210921E02E0915002F0E0B3
S1130D10E85CFD4F80913D0280831092200261E0E7
S1130D2082E079DA80913D028B3028F48091500280
S1130D308F5F8093500280913F02813029F480912B
S1130D405002853008F0A9DE80913E02813029F4FA
S1130D5080915002853008F02EDF2FEF83EC99E06C
S1130D60215080409040E1F700C00000ACCFEE0F6E
S1130D70FF1F0024001C0BBE0790F691E02D099480
S1130D804532510518F4423008F004C0FB011082CA
S1130D90CB010895BB274A3031F4992322F4BDE2F4
S1130DA0909581959F4F01C0BB27FB015527AA272A
S1130DB0880F991FAA1FA41710F0A41B83955051E4
S1130DC0B9F7A05DAA3308F0A95DA193009779F75C
S1130DD0B111B1931192CB0141C20F931F93CF93E1
S1130DE0DF93CDB7DEB72E970FB6F894DEBF0FBEF4
S1130DF0CDBF0D891E8986E08C831A8309838FEF0A
S1130E009FE79E838D83AE01475E5F4F6F89788D28
S1130E10CE01019610D0EF81F885E00FF11F10820A
S1130E202E960FB6F894DEBF0FBECDBFDF91CF91E3
S1130E301F910F9108952F923F924F925F926F925C
S1130E407F928F929F92AF92BF92CF92DF92EF9256
S1130E50FF920F931F93CF93DF93CDB7DEB72B97FA
S1130E600FB6F894DEBF0FBECDBF6C017B018A01C3
S1130E70FC0117821682838181FFBFC1CE010196D6
S1130E803C01F6019381F70193FD859193FF8191D4
S1130E907F01882309F4ADC1853239F493FD85912E
S1130EA093FF81917F01853221F4B60190E0E6D170
S1130EB0E8CF912C212C312CFFE1F315D8F08B32A3
S1130EC079F038F4803279F08332A1F4232D206153
S1130ED01DC08D3261F0803369F4232D216016C06A
S1130EE0832D8260382EE32DE4603E2E2AC0F32D3C
S1130EF0F8601DC037FC2DC020ED280F2A3040F0CB
S1130F008E32B9F436FC75C1232D2064322E19C0FB
S1130F1036FE06C08AE0989E200D1124922E11C040
S1130F20EAE02E9E200D1124222EF32DF0623F2E96
S1130F3008C08C3621F4832D8068382E02C0883690
S1130F4041F4F70193FD859193FF81917F01811114
S1130F50B3CF982F9F7D9554933028F40C5F1F4F87
S1130F609FE399830DC0833631F0833771F0833565
S1130F7009F055C020C0F801808189830E5F1F4F9E
S1130F8088248394912C530112C02801F2E04F0E5F
S1130F90511CF801A080B18036FE03C0692D70E0B9
S1130FA002C06FEF7FEFC5014ED14C018201F32DDA
S1130FB0FF773F2E15C0280122E0420E511CF80194
S1130FC0A080B18036FE03C0692D70E002C06FEFCF
S1130FD07FEFC5012DD14C01F32DF0683F2E820126
S1130FE033FC19C0822D90E088169906A0F4B6014E
S1130FF080E290E043D12A94F5CFF50137FC859146
S113100037FE81915F01B60190E038D121102A9416
S113101021E0821A91088114910479F7E1C08436A1
S113102011F0893639F5F80137FE07C06081718106
S1131030828193810C5F1F4F08C060817181072EEC
S1131040000C880B990B0E5F1F4FF32DFF763F2E7C
S113105097FF09C090958095709561957F4F8F4F4C
S11310609F4FF0683F2E2AE030E0A30143D1882E41
S1131070861844C0853731F4232D2F7EB22E2AE002
S113108030E025C0932D997FB92E8F36C1F018F426
S1131090883579F0AEC0803719F0883721F0A9C0BF
S11310A0E92FE061BE2EB4FE0DC0FB2DF460BF2E0F
S11310B009C034FE0AC0292F2660B22E06C028E0DB
S11310C030E005C020E130E002C020E132E0F80168
S11310D0B7FE07C060817181828193810C5F1F4FCD
S11310E006C06081718180E090E00E5F1F4FA30114
S11310F001D1882E8618FB2DFF773F2E36FE0DC0BA
S1131100232D2E7FA22E891458F434FE0BC032FCFA
S113111009C0832D8E7EA82E05C0B82CA32C03C035
S1131120B82C01C0B92CA4FE0FC0FE01E80DF11DBE
S11311308081803321F49A2D997EA92E09C0A2FEC4
S113114006C0B394B39404C08A2D867809F0B3948E
S1131150A3FC10C0A0FE06C0B21480F4280C922C8C
S11311609B180DC0B21458F4B60180E290E086D00A
S1131170B394F8CFB21418F42B1802C0982C212C75
S1131180A4FE0FC0B60180E390E078D0A2FE16C0A2
S1131190A1FC03C088E790E002C088E590E0B601B6
S11311A00CC08A2D867851F0A1FE02C08BE201C0EA
S11311B080E2A7FC8DE2B60190E060D0891430F49F
S11311C0B60180E390E05AD09A94F8CF8A94F30160
S11311D0E80DF11D8081B60190E050D08110F6CF6A
S11311E0222009F44ECEB60180E290E047D02A9442
S11311F0F7CFF6018681978102C08FEF9FEF2B9680
S11312000FB6F894DEBF0FBECDBFDF91CF911F9113
S11312100F91FF90EF90DF90CF90BF90AF909F9091
S11312208F907F906F905F904F903F902F90089594
S1131230FC010590615070400110D8F7809590959D
S11312408E0F9F1F0895FC016150704001900110A2
S1131250D8F7809590958E0F9F1F0895DC01FC01AF
S1131260672F71917723E1F7329704C07C916D93D6
S113127070836291AE17BF07C8F308950F931F934D
S1131280CF93DF93FB01238121FD03C08FEF9FEFF9
S11312902CC022FF16C04681578124813581421714
S11312A0530744F4A081B1819D012F5F3F4F3183E7
S11312B020838C93268137812F5F3F4F378326838A
S11312C014C08B01EC01FB010084F185E02D09952C
S11312D0892BE1F6D80116968D919C91179701966A
S11312E017969C938E931697CE01DF91CF911F9101
S11312F00F910895FA01AA27283051F1203181F184
S1131300E8946F936E7F6E5F7F4F8F4F9F4FAF4F09
S1131310B1E03ED0B4E03CD0670F781F891F9A1F1C
S1131320A11D680F791F8A1F911DA11D6A0F711DD0
S1131330811D911DA11D20D009F468943F912AE0DC
S1131340269F11243019305D3193DEF6CF010895C4
S1131350462F4770405D4193B3E00FD0C9F7F6CFF5
S1131360462F4F70405D4A3318F0495D31FD4052BD
S1131370419302D0A9F7EACFB4E0A6959795879553
S113138077956795BA95C9F7009761057105089532
S11313909B01AC010A2E06945795479537952795DE
S11313A0BA95C9F7620F731F841F951FA01D089576
S10713B0F894FFCFDB
S11313B43F065B4F666D7C077F6F54455354204B47
S11313C449543A4D544B2D41543800204B4559202F
S11313D464617461203D202E2E2020007072657398
S11313E473206E65775F4B65790070726573732043
S11313F44B657956616C2E00454550524F4D20572C
S11314047269746500416464723A307825327820D4
S11314143D20256300454550524F4D20526561647B
S113142400446F6F724B65792053797374656D0052
S113143450726573734B65792031316F72313200A8
S11314447072657373206E65775F4B6579204E6F98
S113145420005361766564204E6F2E526561646981
S11314646E670020202020202020202020202020FF
S1131474202020202020202000416464723A307807
S1131484253278203D20256400476F6F6F6F6F64A9
S1131494206A6F6F6F6200204C454473204F6E6E58
S11314A46E6E2E2E2E0042616161616164206A6F4A
S11314B46F6F6200204C454473204F666666662E47
S11114C42E2E0048656C6C6F77204156520046
S9030000FC
