:10000000D6C00000F2C00000F0C00000EEC000004A
:10001000ECC00000EAC00000E8C00000E6C000003C
:10002000E4C00000E2C00000FCC10000DEC000002F
:10003000DCC00000DAC00000D8C00000D6C000005C
:10004000B4C10000D2C00000D0C00000CEC000008B
:10005000CCC00000CAC00000C8C00000C6C000007C
:10006000C4C00000C2C00000C0C00000BEC000008C
:10007000BCC00000BAC00000B8C00000B6C000009C
:10008000B4C00000B2C00000B0C000008605880502
:100090008A058C058E0590059205940596059805B0
:1000A0009A059C059E05A005A205A4056E616E003B
:1000B000696E660000407A10F35A00A0724E18096B
:1000C0000010A5D4E80000E87648170000E40B54BF
:1000D000020000CA9A3B000000E1F505000080968E
:1000E0009800000040420F000000A08601000000C0
:1000F000102700000000E80300000000640000007A
:1001000000000A00000000000100000000002C7642
:10011000D888DC674F0823DFC1DFAE59E1B1B7965D
:10012000E5E3E453C63AE651997696E8E6C28426BA
:10013000EB898C9B62ED407C6FFCEFBC9C9F40F296
:10014000BAA56FA5F490055A2AF75C936B6CF96712
:100150006DC11BFCE0E40D47FEF520E6B500D0EDD7
:10016000902E0300943577050080841E080000203F
:100170004E0A000000C80C333333330F986E1283DD
:100180001141EF8D2114893BE65516CFFEE6DB18B1
:10019000D1844B381BF77C1D901DA4BBE424203276
:1001A00084725E228100C9F124ECA1E53D2711246F
:1001B0001FBECFEFD0E1DEBFCDBF12E0A0E0B1E0C7
:1001C000E0E9F9E100E00BBF02C007900D92AE310B
:1001D000B107D9F722E0AEE1B2E001C01D92A4352B
:1001E000B207E1F7CBD50C94C60C0ACF1092610090
:1001F00085B3867F85BB85B3826F85BB85B3846FEE
:1002000085BB0799F5CF8FEF809361002FEF89EFC2
:1002100090E0215080409040E1F700C00000089538
:10022000CF93C82FE3DFC093620085B3867F85BB81
:1002300085B3857F85BB85B3846F85BB85B3807FA0
:1002400085BB8FED9EE20197F1F700C00000CF91D2
:1002500008958FEF8093610094B384BB8FE59AEE8D
:100260000197F1F700C0000080E38093620085B33E
:10027000807F85BB8FE090E40197F1F700C000001C
:1002800085B3807F85BB8FE891E00197F1F700C0CF
:10029000000085B3807F85BB88E3C2DF88E0C0DFD4
:1002A00081E0BEDF8FE0BCCF0895CF93C82F9EDFE3
:1002B00085B3816F85BB85B3857F85BB85B3846F2F
:1002C00085BB87EC90E00197F1F700C00000C09378
:1002D000620087EC90E00197F1F700C0000085B361
:1002E000837F85BB8FED9EE20197F1F700C0000090
:1002F000CF9108950F931F93CF93DF938C01C0E0AC
:10030000D0E0F801EC0FFD1F8081882319F02196C1
:10031000CCDFF7CFDF91CF911F910F91089581E04E
:100320007FCF089590E001970024969587950794D4
:10033000969587950794982F802D70E061507109EC
:10034000860F971F80686CCF08958FEF8ABB8BBB99
:1003500088BB87BB85BB90EF94BB109262008093F3
:10036000610092B99FE093B92FEF33ED90E32150F4
:1003700030409040E1F700C000001BBA18BA98EF77
:1003800091BB809364008EEF80936500089587E0B1
:1003900083BF12BE81E087BF089583E085BD84EDF1
:1003A00084BD87B7806487BF08951F920F920FB6F0
:1003B0000F9211248F939F9380E782BF81E08093F7
:1003C0005202809121029091220201969093220282
:1003D000809321028436910538F010922202109207
:1003E000210281E0809324029F918F910F900FBE94
:1003F0000F901F90189590913702913341F420E9A6
:1004000031E03093420220934102809353020895D9
:1004100080E991E09093420280934102109253024E
:1004200008951F920F920FB60F9211240BB60F92E0
:100430002F933F934F935F936F937F938F939F93EC
:10044000AF93BF93EF93FF9380911E0290911F0291
:10045000009719F488E884BD0DC08130910519F426
:100460008AE684BD07C0029719F48CE484BD02C0FB
:1004700084E284BD2091530291E080913702803361
:1004800009F090E081E0211180E0892B31F0E5E670
:10049000F0E080818E7F808330C080914102909116
:1004A000420201979093420280934102883C910559
:1004B00038F0E5E6F0E0908181E0892780831DC077
:1004C000009731F0E5E6F0E080818E7F808315C0F3
:1004D000892B99F4215020935302211102C098DFF7
:1004E0000CC0E5E6F0E0908181E08927808380E917
:1004F00091E09093420280934102FF91EF91BF916E
:10050000AF919F918F917F916F915F914F913F91AB
:100510002F910F900BBE0F900FBE0F901F9018954C
:100520000F931F9303C00000C901B8018B019C0108
:100530000150110921093109672B682B692B99F7A3
:100540001F910F91089520E030E009C00F92000044
:1005500000000000000000000F902F5F3F4F2817A1
:100560003907A0F308950F931F93CF93DF938C0166
:10057000C0E0D0E00DC08AEF90E0E5DF8AEF90E0C8
:10058000E2DF8AEF90E0DFDF8AEF90E0DCDF2196A8
:10059000C017D10780F3DF91CF911F910F9108957C
:1005A000CF9380912302853078F08FE083B96AE0A1
:1005B00070E080E090E0B4DF81B18F708F3009F09F
:1005C0009EC0109223029BC08FEE83B96AE070E058
:1005D00080E090E0A5DF089905C081E0809351029A
:1005E000C1E001C0C0E0099904C084E080935102D9
:1005F000CF5F0A9904C087E080935102CF5F0B99C7
:1006000004C08BE080935102CF5F8FED83B96AE025
:1006100070E080E090E084DF089904C082E080937D
:100620005102CF5F099904C085E080935102CF5FEA
:100630000A9904C088E080935102CF5F0B9904C0EF
:100640008AE080935102CF5F8FEB83B96AE070E05C
:1006500080E090E065DF089904C083E08093510258
:10066000CF5F099904C086E080935102CF5F0A9959
:1006700004C089E080935102CF5F0B9904C08CE0E5
:1006800080935102CF5F8FE783B96AE070E080E02A
:1006900090E046DF089904C08DE080935102CF5F5F
:1006A000099904C08EE080935102CF5F0A9904C07B
:1006B0008FE080935102CF5F0B9904C080E180935B
:1006C0005102CF5F8FEF83B9C130C9F480915102DD
:1006D00090914002891729F08093400210922302E2
:1006E0000EC0809123028F5F80932302853038F003
:1006F00090933D021092400281E080932002CF91BE
:1007000008958091010188BB6FE081E00BDE86ECEB
:1007100091E0F0DD6FE081E005DE809151024AE07A
:1007200050E065E472E090E00E94C10B85E492E045
:10073000E1DD60914F0281E0860F80934F0282E0FD
:10074000F1DD81E3B2CD08958091020188BB6FE0B5
:1007500081E0E8DD86EC91E0CDDD6FE081E0E2DD77
:10076000809151024AE050E065E472E090E00E941E
:10077000C10B85E492E0BEDD60914F0281E0860FFF
:1007800080934F0282E0CEDD82E38FCD0895809189
:10079000030188BB6FE081E0C5DD86EC91E0AADD56
:1007A0006FE081E0BFDD809151024AE050E065E4F6
:1007B00072E090E0E6D785E492E09CDD60914F0224
:1007C00081E0860F80934F0282E0ACDD83E36DCD44
:1007D00008958091040188BB6FE081E0A3DD86EC81
:1007E00091E088DD8FE19EE40197F1F700C0000001
:1007F0006FE081E097DD809151024AE050E065E4CE
:1008000072E090E0BED785E492E074DD60914F0223
:1008100081E0860F80934F0282E084DD84E345CD42
:1008200008958091050188BB6FE081E07BDD86EC57
:1008300091E060DD6FE081E075DD809151024AE07A
:1008400050E065E472E090E09CD785E492E052DDF0
:1008500060914F0281E0860F80934F0282E062DD5B
:1008600085E323CD08958091060188BB6FE081E088
:1008700059DD86EC91E03EDD6FE081E053DD809153
:1008800051024AE050E065E472E090E07AD785E4F6
:1008900092E030DD60914F0281E0860F80934F023D
:1008A00082E040DD86E301CD08958091070188BB99
:1008B0006FE081E037DD86EC91E01CDD6FE081E0E8
:1008C00031DD809151024AE050E065E472E090E051
:1008D00058D785E492E00EDD60914F0281E0860FEB
:1008E00080934F0282E01EDD87E3DFCC0895809184
:1008F000080188BB6FE081E015DD86EC91E0FADC51
:100900006FE081E00FDD809151024AE050E065E444
:1009100072E090E036D785E492E0ECDC60914F0223
:1009200081E0860F80934F0282E0FCDC88E3BDCC3F
:1009300008958091090188BB6FE081E0F3DC86ECCB
:1009400091E0D8DC6FE081E0EDDC809151024AE07B
:1009500050E065E472E090E014D785E492E0CADCF0
:1009600060914F0281E0860F80934F0282E0DADCD3
:1009700089E39BCC08958091000188BB6FE081E002
:10098000D1DC86EC91E0B6DC6FE081E0CBDC8091DD
:1009900051024AE050E065E472E090E0F2D680E374
:1009A00084DC60914F0281E0860F80934F0282E0E9
:1009B000B9DC80E37ACC08956FE081E0B3DC86ECAB
:1009C00091E098DC6FE081E0ADDC809151024AE07B
:1009D00050E065E472E090E0D4D685E492E08ADCF1
:1009E00081E080933F029BDC61E081E09BDC8CE254
:1009F00091E080DC61E082E095DC8BEB91E07ACCE9
:100A000008956FE081E08EDC86EC91E073DC6FE0AE
:100A100081E088DC809151024AE050E065E472E0B8
:100A200090E0AFD685E492E065DC81E080933E0201
:100A300076DC61E081E076DC8AE391E05BDC61E01A
:100A400082E070DC8BEB91E055CC08956FE081E0A3
:100A500069DC86EC91E04EDC6FE081E063DC809144
:100A600051024AE050E065E472E090E08AD685E405
:100A700092E040CC08956FE081E054DC86EC91E098
:100A800039DC6FE081E04EDC809151024AE050E0B9
:100A900065E472E090E075D685E492E02BCC089591
:100AA0006FE081E03FDC86EC91E024DC6FE081E0E8
:100AB00039DC809151024AE050E065E472E090E058
:100AC00060D685E492E016CC08956FE081E02ADCE0
:100AD00086EC91E00FDC6FE081E024DC8091510234
:100AE0004AE050E065E472E090E04BD685E492E0A5
:100AF00001CC0895E0913D028E2F90E0FC013197EA
:100B0000E031F10510F5EA5BFF4F44C5FACD0895D9
:100B10001BCE08953CCE08955CCE089582CE0895F4
:100B2000A2CE0895C2CE0895E2CE089502CF0895D0
:100B300022CF089541CF089564CF089587CF0895B7
:100B40009ACF0895ADCF0895C0CF0895E199FECF13
:100B50001FBE90E09FBB8EBB6DBB8CB384608CBB13
:100B60008CB382608CBB80E88FBF0895E199FECF83
:100B700090E09FBB8EBB8CB381608CBB8DB308951E
:100B8000CEDB61E081E0CEDB81E791E0B3DB61E0C9
:100B900082E0C8DB80E891E0ADDB2FEF80E792E0F8
:100BA000215080409040E1F700C0000008950F936D
:100BB0001F93CF93DF9361E081E0B4DB80E991E0A4
:100BC00099DB61E082E0AEDBC0E0D0E00BC08E01DB
:100BD000085C1D4FF80160818C2FB8DF83E6F801B7
:100BE00080832196C530D10594F399DB61E081E0E3
:100BF00099DB82EA91E07EDB61E082E093DB83EBCC
:100C000091E078DBFFEF21EE84E0F150204080405E
:100C1000E1F700C00000C0E0D0E027C08C2FA6DFC5
:100C20001F928F93DF93CF9389EC91E09F938F93E3
:100C300087E292E09F938F930DD661E082E072DBB2
:100C400087E292E057DBFFEF23EC89E0F150204090
:100C50008040E1F700C000002196EDB7FEB738965E
:100C60000FB6F894FEBF0FBEEDBFC530D105B4F28C
:100C70001092500210923F028CE080934F0280DF6E
:100C8000DF91CF911F910F91089581E08BBB2FEFE2
:100C900049E688E1215040408040E1F700C0000073
:100CA00020E030E00EC08BB3880F8BBB9FEF49E68E
:100CB00088E1915040408040E1F700C000002F5F84
:100CC0003F4F293031057CF308951F93CF93DF9375
:100CD000C0E0D0E011E009C08C2F48DFFE01E85CE5
:100CE000FD4F9081891310E02196C530D105A4F302
:100CF000113011F514DB61E081E014DB89ED91E046
:100D0000F9DA61E082E00EDB87EE91E0F3DA2FEFB3
:100D100081EE94E0215080409040E1F700C0000057
:100D2000B4DF2FEF83ED90E3215080409040E1F756
:100D300000C000001BBA16C0F2DA61E081E0F2DA0E
:100D400086EF91E0D7DA61E082E0ECDA84E092E0CD
:100D5000D1DA2FEF81EE94E0215080409040E1F70E
:100D600000C000008CE080934F021092500210925D
:100D70003E0206DFDF91CF911F9108951092440249
:100D800080E18EBF8FEF8DBFE0DA01DB06DB84E60A
:100D900090E0E9DB5EDA8CE080934F021092500223
:100DA000789461E081E0BEDA83E192E0A3DA2FEF8C
:100DB00083ED90E3215080409040E1F700C00000B7
:100DC00080E380934302ABDA61E081E0ABDA81E358
:100DD0008093370284E00FDBD3DE809152028823B8
:100DE00019F0DEDB109252028091240281111092E0
:100DF000240280912002813081F77CDE82E0FBDAE0
:100E000080911E0290911F02019690931F02809381
:100E10001E02049724F010921F0210921E02E0910D
:100E20005002F0E0E85CFD4F80913D02808310921B
:100E3000200261E082E076DA80913D028B3028F476
:100E4000809150028F5F8093500280913F028130E9
:100E500029F480915002853008F0A9DE80913E028D
:100E6000813029F480915002853008F02EDF2FEF79
:100E700083EC99E0215080409040E1F700C00000F1
:100E8000ACCF2F923F924F925F926F927F928F9250
:100E90009F92AF92BF92CF92DF92EF92FF920F9309
:100EA0001F93CF93DF93CDB7DEB760970FB6F8945B
:100EB000DEBF0FBECDBF7C011B016A01FC011782A2
:100EC0001682838181FF2AC39E012F5F3F4F390124
:100ED000F7019381F10193FD859193FF81911F01AA
:100EE000882309F417C3853239F493FD859193FF64
:100EF00081911F01853231F4B70190E06FD4560122
:100F00006501E6CF10E0512C912CFFE1F915D8F0E6
:100F10008B3279F038F4803279F08332A1F4F92DF4
:100F2000F0612EC08D3261F0803369F4292D21608B
:100F30002DC0392D3260932E892D8460982E2AC0C1
:100F4000E92DE86015C097FC2DC020ED280F2A3050
:100F500088F496FE06C03AE0139F200D1124122F4C
:100F600019C08AE0589E200D1124522EE92DE0620E
:100F70009E2E10C08E3231F496FCCCC2F92DF06456
:100F80009F2E08C08C3621F4292D2068922E02C095
:100F9000883641F4F10193FD859193FF81911F0102
:100FA0008111B3CF9BEB980F933020F4992D906172
:100FB000805E07C09BE9980F933008F059C1992DC6
:100FC0009F7E96FF16E09F73992E853619F49064E4
:100FD000992E08C0863621F4392F3068932E02C02E
:100FE0001111115097FE07C01C3350F44424439450
:100FF000410E27E00BC0183038F027E017E005C09D
:1010000027E09CE3492E02C0212F412C560184E0A9
:10101000A80EB11CF6016081718182819381042D3B
:10102000A301C1D26C01F981FC87F0FF02C0F3FF7C
:1010300006C091FC06C092FE06C000E205C00DE2AB
:1010400003C00BE201C000E08C858C7019F0011127
:1010500043C280C297FE10C04C0CFC85F4FF04C054
:101060008A81813309F44A94141474F528E0241514
:1010700078F588E0482E2CC096FC2AC0812F90E09D
:101080008C159D059CF03CEFC3163FEFD30674F022
:10109000892D8068982E0AC0E2E0F0E0EC0FFD1F79
:1010A000E10FF11D8081803319F411501111F4CF3B
:1010B00097FE0EC044244394410E812F90E0C81641
:1010C000D9062CF41C1904C04424439401C010E038
:1010D00097FE06C01C141D0434F4C601019605C019
:1010E00085E090E002C081E090E0011101961123BB
:1010F00031F0212F30E02F5F3F4F820F931F252DBE
:1011000030E08217930714F4581A01C0512C892D2E
:10111000897041F4552031F0B70180E290E05ED350
:101120005A94F8CF002321F0B701802F90E056D3D6
:1011300093FC08C0552031F0B70180E390E04ED316
:101140005A94F8CF97FE4AC04601D7FE02C0812CC0
:10115000912CC60188199909F301E80FF91FFE8740
:10116000ED87960124193109388B2F87012F10E064
:101170001195019511093FEF8316930621F4B701EC
:101180008EE290E02BD3C814D9044CF08F85988957
:101190008815990524F4ED85FE85818101C080E3E1
:1011A000F1E08F1A91082D853E852F5F3F4F3E87D6
:1011B0002D878016910624F0B70190E00FD3DBCF86
:1011C000C814D90441F49A81963320F4953319F464
:1011D0003C8534FF81E3B70190E048C08A818133C8
:1011E00019F09C859F7E9C87B70190E0F7D2111182
:1011F00005C094FC16C085E690E015C0B7018EE2EC
:1012000090E0ECD21E5F82E001E0080FF301E80FEE
:10121000F11D8081B70190E0E1D2802F0113F4CF5E
:10122000E8CF85E490E0B701D9D2D7FC06C0C1145D
:10123000D10441F4EC85E4FF05C0D194C194D108F8
:101240008DE201C08BE2B70190E0C8D280E32AE0D2
:10125000C216D1042CF08F5FFAE0CF1AD108F7CF75
:10126000B70190E0BBD2B701C601C096B7D249C161
:10127000833631F0833779F0833509F052C01FC0CF
:10128000560132E0A30EB11CF6018081898301E092
:1012900010E0630111C05601F2E0AF0EB11CF6017F
:1012A000C080D18096FE03C0612F70E002C06FEF56
:1012B0007FEFC6015BD28C01F92DFF7713C0560179
:1012C00022E0A20EB11CF601C080D18096FE03C0C0
:1012D000612F70E002C06FEF7FEFC6013CD28C013E
:1012E000F92DF0689F2EF3FD18C0852D90E00817AA
:1012F000190798F4B70180E290E070D25A94F5CFC4
:10130000F60197FC859197FE81916F01B70190E0FE
:1013100065D251105A94015011090115110581F738
:10132000F0C0843611F0893659F5560197FE09C090
:1013300024E0A20EB11CF60160817181828193814B
:101340000AC0F2E0AF0EB11CF60160817181072E78
:10135000000C880B990BF92DFF769F2E97FF09C083
:1013600090958095709561957F4F8F4F9F4FF06856
:101370009F2E2AE030E0A3019BD2C82EC6183EC0A3
:10138000092D853721F40F7E2AE030E01DC0097F4A
:101390008F3691F018F4883559F0BCC0803719F0B9
:1013A000883711F0B7C0006104FF09C0046007C0AE
:1013B00094FE08C0066006C028E030E005C020E1C9
:1013C00030E002C020E132E0560107FF09C084E0AE
:1013D000A80EB11CF601608171818281938108C0E1
:1013E000F2E0AF0EB11CF6016081718180E090E007
:1013F000A3015ED2C82EC6180F77902E96FE0BC0A2
:10140000092D0E7FC11650F494FE0AC092FC08C04C
:10141000092D0E7E05C0DC2C092D03C0DC2C01C07B
:10142000D12E04FF0DC0FE01EC0DF11D8081803333
:1014300011F4097E09C002FF06C0D394D39404C0FE
:10144000802F867809F0D39403FD10C000FF06C0FA
:101450001C2DD51478F4150D1D190CC0D51450F49D
:10146000B70180E290E0BAD1D394F8CFD51410F44C
:101470005D1801C0512C04FF0FC0B70180E390E05C
:10148000ADD102FF16C001FD03C088E790E002C0A5
:1014900088E590E0B7010CC0802F867851F001FFFD
:1014A00002C08BE201C080E207FD8DE2B70190E04F
:1014B00095D1C11630F4B70180E390E08FD111507F
:1014C000F8CFCA94F301EC0DF11D8081B70190E0D3
:1014D00085D1C110F6CF15C0F4E0F51550F584E0C4
:1014E000581A93FE1EC0011125C02C8523FF27C06A
:1014F0000CEA10E0392D3071932EF801849181119E
:1015000021C0552009F4FCCCB70180E290E066D1FF
:101510005A94F7CFF7018681978123C08FEF9FEF11
:1015200020C0B70180E290E059D15A945110F9CF10
:10153000DACF512CB701802F90E050D1D6CF00EBFD
:1015400010E0D8CF91108052B70190E047D10F5FE3
:101550001F4FD3CF23E0251510F483E0C1CF512CCA
:10156000C4CF60960FB6F894DEBF0FBECDBFDF913B
:10157000CF911F910F91FF90EF90DF90CF90BF9090
:10158000AF909F908F907F906F905F904F903F9023
:101590002F900895EE0FFF1F0024001C0BBE079034
:1015A000F691E02D0994283008F027E03327DA017E
:1015B000990F311D87FD916000966105710539F421
:1015C00032602E5F3D9330E32A95E1F708959F3F07
:1015D00030F080387105610509F03C5F3C5F3D9358
:1015E000913008F08068911DDF93CF931F930F9384
:1015F000FF92EF92192F987F9695E92F96959695E1
:10160000E90FFF27E25FFE4F99273327EE24FF24DF
:10161000A701E70105900894079428F4360FE71E08
:10162000F81E491F511D660F771F881F991F0694CA
:10163000A1F70590079428F4E70EF81E491F561FDE
:10164000C11D770F881F991F661F0694A1F705908B
:10165000079428F4F80E491F561FC71FD11D880F85
:10166000991F661F771F0694A1F70590079420F431
:10167000490F561FC71FD81F990F661F771F881F56
:101680000694A9F784911095177041F0D695C795E7
:1016900057954795F794E7941A95C1F7E4EBF0E076
:1016A00068941590159135916591959105907FE21B
:1016B0007395E118F10A430B560BC90BD009C0F71B
:1016C000E10CF11E431F561FC91FD01D7EF470335D
:1016D00011F48A95E6CFE894015030F0080F0AF42F
:1016E0000027021708F4202F2395022F7A3328F0C1
:1016F00079E37D932A95E9F710C07D932A9589F6C1
:10170000069497956795379517951794E118F10A00
:10171000430B560BC90BD00998F023957E91739516
:101720007A3308F070E37C932013B8F77E917061F0
:101730007D9330F0839571E37D9370E32A95E1F713
:101740001124EF90FF900F911F91CF91DF91992776
:1017500087FD90950895FC0105906150704001103F
:10176000D8F7809590958E0F9F1F0895FC016150CA
:10177000704001900110D8F7809590958E0F9F1FB3
:1017800008954532510518F4423008F004C0FB01B9
:101790001082CB010895BB274A3031F4992322F4FB
:1017A000BDE2909581959F4F01C0BB27FB01552756
:1017B000AA27880F991FAA1FA41710F0A41B8395AE
:1017C0005051B9F7A05DAA3308F0A95DA193009725
:1017D00079F7B111B1931192CB01C8C00F931F9348
:1017E000CF93DF93FB01238121FD03C08FEF9FEF98
:1017F0002CC022FF16C046815781248135814217B3
:10180000530744F4A081B1819D012F5F3F4F318385
:1018100020838C93268137812F5F3F4F3783268328
:1018200014C08B01EC01FB010084F185E02D0995CA
:10183000892BE1F6D80116968D919C911797019608
:1018400017969C938E931697CE01DF91CF911F919F
:101850000F9108950F931F93CF93DF93CDB7DEB70A
:101860002E970FB6F894DEBF0FBECDBF0D891E892F
:1018700086E08C831A8309838FEF9FE79E838D8395
:10188000AE01475E5F4F6F89788DCE010196F9DA20
:10189000EF81F885E00FF11F10822E960FB6F894B5
:1018A000DEBF0FBECDBFDF91CF911F910F91089585
:1018B000FA01AA27283051F1203181F1E8946F9381
:1018C0006E7F6E5F7F4F8F4F9F4FAF4FB1E03ED027
:1018D000B4E03CD0670F781F891F9A1FA11D680FC5
:1018E000791F8A1F911DA11D6A0F711D811D911DF8
:1018F000A11D20D009F468943F912AE0269F11246D
:101900003019305D3193DEF6CF010895462F4770D0
:10191000405D4193B3E00FD0C9F7F6CF462F4F702B
:10192000405D4A3318F0495D31FD4052419302D089
:10193000A9F7EACFB4E0A69597958795779567952F
:10194000BA95C9F700976105710508959B01AC012F
:101950000A2E06945795479537952795BA95C9F756
:10196000620F731F841F951FA01D0895DC01FC01E9
:10197000672F71917723E1F7329704C07C916D93C3
:1019800070836291AE17BF07C8F30895F894FFCF34
:101990003F065B4F666D7C077F6F54455354204B69
:1019A00049543A4D544B2D41543800204B45592051
:1019B00064617461203D202E2E20200070726573BA
:1019C00073206E65775F4B65790070726573732065
:1019D0004B657956616C2E00454550524F4D20574E
:1019E0007269746500416464723A307825327820F7
:1019F0003D20256300454550524F4D20526561649E
:101A000000446F6F724B65792053797374656D0074
:101A100050726573734B65792031316F72313200CA
:101A20007072657373206E65775F4B6579204E6FBA
:101A300020005361766564204E6F2E5265616469A3
:101A40006E67002020202020202020202020202021
:101A5000202020202020202000416464723A307829
:101A6000253278203D20256400476F6F6F6F6F64CB
:101A7000206A6F6F6F6200204C454473204F6E6E7A
:101A80006E6E2E2E2E0042616161616164206A6F6C
:101A90006F6F6200204C454473204F666666662E69
:0E1AA0002E2E0048656C6C6F77204156520068
:00000001FF
